:020000040800F2
:10000000A87F00208501000825680008F149000844
:10001000255200088926000865D900080000000064
:100020000000000000000000000000009701000830
:10003000F92A0008000000000F0A000889CB000818
:100040009F0100089F0100089F0100089F01000810
:100050009F0100089F0100089F0100089F01000800
:100060009F0100089F0100089F0100089F010008F0
:100070009F0100089F0100089F0100089F010008E0
:100080009F0100089F0100089F0100089F010008D0
:100090009F0100089F0100089F0100089F010008C0
:1000A0009F0100089F0100089F0100089F010008B0
:1000B0009F01000895CD00089F0100089F010008DE
:1000C0009F0100089F0100089F0100089F01000890
:1000D0009F01000871D30008C5D4000839D5000875
:1000E0009F0100089F0100089F0100080000000018
:1000F0000000000000000000000000000000000000
:10010000000000009F0100089F010008000000009F
:1001100000000000000000000000000000000000DF
:100120009F0100089F0100089F0100089F0100082F
:1001300000000000000000000000000000000000BF
:100140000000000000000000000000009F01000807
:1001500000000000000000009F0100089F0100084F
:100160009F01000800000000000000009F0100083F
:10017000DFF80CD000F092FB004800478D1A010810
:10018000A87F00200648804706480047FEE7FEE7B4
:10019000FEE7FEE7FEE7FEE7FEE7FEE7FEE7FEE737
:1001A000A5CB00087101000872B6704762B67047AF
:1001B000EFF3108072B6704780F31088704730BF3D
:1001C000704720BF7047B0FA80F0704790FAA0F0F7
:1001D000B0FA80F0704790FAA0F070472DE9F05F18
:1001E0000546002092469B468846064681464024A6
:1001F0001BE0284641464746224600F072FA534625
:100200005A46C01A914110D311461846224600F0B2
:1002100059FA2D1A67EB01084F46224601200021AA
:1002200000F050FA17EB00094E41201EA4F1010422
:10023000DFDC484631462A464346BDE8F09F40EAA7
:1002400001039B0703D009E008C9121F08C0042A54
:10025000FAD203E011F8013B00F8013B521EF9D23B
:100260007047D2B201E000F8012B491EFBD2704763
:100270000022F6E710B513460A4604461946FFF772
:10028000F0FF204610BD30B505462A460B4612F851
:10029000010B13F8014B08B1A042F8D01CB10028A3
:1002A00002D06D1CF1E7284630BD421C10F8011B3E
:1002B0000029FBD1801A704730B50546002003465F
:1002C00000E05B1C934205D2EC5CC85C201A01D1B3
:1002D000002CF6D130BD000070B50F4D00B9286874
:1002E000002412E00A4602E09E4203D0521C13781A
:1002F000002BF9D1DAB2224305D02BB124B1002171
:1003000000F8011B04E00446401C0678002EE9D1E9
:100310002860204670BD00000407002070B5064626
:100320000FF030FB046805460A220021304600F039
:10033000E8F92C6070BDF0B480EA0102D40F4200ED
:10034000B2EB410F02D20246084611464A0042D0A3
:10035000C30DDDB2C1F3C752AD1A202D35DAC1F39A
:10036000160141F4000204B15242C5F1200602FA1E
:1003700006F12A411044B3EBD05F23D0C4B1012D64
:10038000A0EBC35009DCF0BC4FF0004202EAC352BC
:10039000DBB200F5000000F0F5B9400000F180701C
:1003A00000EBC350A0F1807040EAD170490009E031
:1003B000490841EAC071A0EBC35000F500004008B5
:1003C00000EBC350F0BC00F0D4B96142012202EB53
:1003D0004101001BF6E7F0BC704781F00041AAE73D
:1003E00080F00040A7E780EA010210B502F0004368
:1003F000400022D04A001FD0010E01EB1261C0F371
:100400005600C2F3560240F4000042F40002A0FB82
:10041000022000047F39140400D0401C50EA12402E
:1004200001D44000491EC2B20C0604EBD010401C9F
:100430004008802A02D003E0002010BD20F0010017
:10044000002900DA0020184310BD30B480EA010210
:1004500002F0004530F0004221F0004013D090B18E
:10046000C30DD40DC2F31601C0F31600E41A41F413
:10047000000140F400027D34914201D3641C00E08D
:100480004900002C02DA30BC002070474FF4000015
:100490000023914201D3891A034340084FEA4101E6
:1004A000F7D151B1914202D14FF0004105E002D2A3
:1004B0004FF0010101E06FF0010103EBC45028444B
:1004C00030BC00F056B92DE9FE4F81EA030404F078
:1004D000004421F0004100944FF0000B23F0004352
:1004E00050EA01045ED052EA03045BD0C3F30A541D
:1004F000C1F30A552C44A4F2F3340194A0FB025436
:10050000C1F3130141F48011C3F3130343F48013C7
:1005100001FB024400FB034E840A970A44EA81541B
:1005200047EA8357A4FB076802958D0A05FB0785F8
:100530004FEA932C04FB0C542705029D4FEA065802
:1005400047EA1637B5EB08056EEB070C870E920EDF
:1005500047EA811742EA8312A7FB0201B6EB0B01BF
:1005600064EB00042B0D43EA0C335E1844EB1C5083
:10057000DA465146E7FB0201C5F313044FEA0B3399
:1005800043EA14534FEA0432019C43EA0603A4F100
:100590000C040294009CCDE900B400F030F903B0E3
:1005A000BDE8F08F00200146F9E7962300221146AE
:1005B00000F0E8B820F00040C10DC0F3160040F490
:1005C00000007F2901DA00207047962903DCC1F181
:1005D0009601C840704796398840704700F0004245
:1005E00030F000400AD0C10D01F56071C0F3160073
:1005F00042EA0151C20840071143704700200146FA
:100600007047000030B5041E71F1000404DB4FF0A8
:100610000044404264EB0101141E73F1000405DB49
:100620001C464FF00043524263EB04038B4208BF69
:10063000824230BD30B5041E71F1000404DB4FF07E
:100640000044404264EB0101141E73F1000405DB19
:100650001C464FF00043524263EB0403994208BF2B
:10066000904230BD01F0004330B421F0004150EA27
:10067000010206D00A0DA2F56072C1F31301002A2F
:1006800002DC30BC00207047440F44EAC104C100C2
:10069000E01830BC00EBC25000F06BB8002801DB62
:1006A000C0F10040002901DBC1F1004181427047E7
:1006B000002801DBC0F10040002901DBC1F100414D
:1006C00088427047202A04DB203A00FA02F1002019
:1006D00070479140C2F1200320FA03F31943904080
:1006E0007047202A04DB203A21FA02F000217047EB
:1006F00021FA02F3D040C2F120029140084319468A
:1007000070472DE9F04791460F4680460446002683
:1007100014F8015B2DB100F0D3F80068405DC0070C
:10072000F6D12B2D02D02D2D18D0641E4A46394605
:10073000204600F0C9F827B13968A14201D1C7F8B5
:10074000008071054FF002040BD54042002803DD04
:100750000FF018F90460A007BDE8F08746F4806642
:10076000E4E70028F8DA0FF00DF904606FF00040BC
:10077000F2E70029A8BF7047401C490008BF20F0DD
:100780000100704710B4B0FA80FC00FA0CF050EA97
:10079000010404BF10BC704749B1CCF1200421FA18
:1007A00004F411FA0CF118BF012121430843A3EB13
:1007B0000C01CB1D4FEA00614FEA102042BF002020
:1007C00010BC704700EBC35010440029A4BF10BCFC
:1007D0007047401C490008BF20F0010010BC704762
:1007E00010B5141E73F1000408DA401C41F1000139
:1007F00092185B411A4301D120F0010010BD2DE990
:10080000F04D92469B4611B1B1FA81F202E0B0FA86
:1008100080F220329046FFF755FF04460F4640EA2B
:100820000A0041EA0B0153465A46084313D01146C9
:1008300053EA010019D0C8F140025046FFF751FFBA
:1008400005460E46504659464246FFF73BFF0843D1
:1008500005D0012004E020463946BDE8F08D002097
:10086000054346EAE0762C4337430A986305E40AD9
:10087000A0EB08000022FD0A44EA47540A3002D5E2
:1008800000200146E9E7010510196941DDE9084545
:1008900000196941BDE8F04DA2E70000064C074D84
:1008A00006E0E06840F0010394E807009847103440
:1008B000AC42F6D3FFF760FCCC500108EC500108C5
:1008C00000487047004E01082DE9F05F824600782D
:1008D000002715468B460AF10104B946302801D09D
:1008E0009DB113E014F8010B0127782803D0582894
:1008F00001D045B10AE00DB1102D07D10027102518
:1009000014F8010B02E0082500E00A250026B04695
:100910000EE005FB080005FB06F1012701EB104680
:100920001FFA80F8B6F5803F00D3B94614F8010BE2
:10093000294600F018F80028EBDABBF1000F05D0CB
:100940000FB1641E00E05446CBF80040B9F1000F2F
:1009500006D00FF017F802210160C81EBDE8F09F15
:1009600048EA0640FAE73A2800D2303820F0200260
:10097000412A01D3A2F13700884201D34FF0FF3062
:10098000704770B58C1810F8015B15F0070301D1A2
:1009900010F8013B2A1106D110F8012B03E010F8E2
:1009A000016B01F8016B5B1EF9D12B0705D4002305
:1009B000521E0DD401F8013BFAE710F8013BCB1AA7
:1009C000921C03E013F8015B01F8015B521EF9D59C
:1009D000A142D8D3002070BD1D484FF0FF01017027
:1009E000002080F309881B48016881F308881A48B1
:1009F0004FF08051016062B6FEE717484FF080511A
:100A00000160704714484FF080510160704772B622
:100A1000EFF3098028B1203880E8F00F0F4909680A
:100A2000086000B50E4880475DF804EB0D480E499C
:100A30000A78027009480D490A680260106890E857
:100A4000F00F203080F309884EF0F40E62B6704744
:100A500022ED00E09C00002004ED00E048010020B1
:100A60009D7D0008C6000020C70000204C0100202A
:100A700021B1826842F00102826003E0826822F0C4
:100A800001028260704721B1826842F48072826004
:100A900003E0826822F48072826070470146002081
:100AA0008A6802F004020AB1012000E000207047C9
:100AB000014600208A6802F008020AB1012000E025
:100AC0000020704730B502460020002350680F4CCC
:100AD00020400D790C6844EA05242043506090685A
:100AE0000B4C2040D1E902542C434D7944EA450493
:100AF00020439060D06A20F470000C7C641EE4B245
:100B0000234340EA0350D06230BD0000FFFEF0FFF7
:100B1000FDF7F1FDF0B504460D4600200021092D3A
:100B200011DDE068A5F10A0606EB4607072606FA7E
:100B300007F18843A5F10A0606EB460603FA06F11B
:100B40000843E0600CE0206905EB4507072606FA3C
:100B500007F1884305EB450603FA06F108432061D7
:100B6000072A0FDA606B561E06EB86071F2606FA69
:100B700007F18843561E06EB860605FA06F1084380
:100B8000606322E00D2A0FDA206BD61F06EB860782
:100B90001F2606FA07F18843D61F06EB860605FADC
:100BA00006F10843206310E0E06AA2F10D0606EBAF
:100BB00086071F2606FA07F18843A2F10D0606EB09
:100BC000860605FA06F10843E062F0BD816841F04F
:100BD00008018160704721B1826842F4A0028260FE
:100BE00003E0826822F4A00282607047816841F0CD
:100BF00004018160704700210160017141718160D1
:100C0000C1600121017470472DE9F04790B007469B
:100C1000894690461E4614210BA8FFF729FB142194
:100C200006A8FFF725FB78217E48FFF721FB7E48C9
:100C3000D0F80A007B4908617C48007E012805D174
:100C4000022178486C3001F0A9FF19E0784800785B
:100C5000012805D1032173486C3001F09FFF0FE09C
:100C6000744890F866020B2805D103216D486C305A
:100C700001F094FF04E002216A486C3001F08EFF1D
:100C80006A48007E01280FD1002000F0BDF905461A
:100C90001DB9002010B0BDE8F087052205F10B0159
:100CA00060481C300BF0BEFE6248406B0A21B0FB6E
:100CB000F1F05C49486139465A48303002F016F884
:100CC0005A48007E012819D100200DF0BBF90128F7
:100CD00028D1554890F839000106534890F83A0059
:100CE00041EA0041504890F83B0041EA00204E495B
:100CF00091F83C1008434B49086013E04A4890F8CB
:100D000039000106484890F83A0041EA0041464857
:100D100090F83B0041EA0020434991F83C10084319
:100D20004049086049463F48623001F037FF41467C
:100D30003C48001D01F032FF3E48D0F862023949BC
:100D400088613C4890F8381090F8392090F83A3093
:100D500090F83C00CDE9023204910190354890F8BA
:100D60003D000090334890F83E00A0F1640332A2A9
:100D700014210BA80EF0EEFD0446601C28B9214694
:100D800035A00EF0D7FD002084E72A4890F83F10E8
:100D900090F8402090F8413090F84300CDE90232BD
:100DA00004910190234890F844000090214890F865
:100DB0004500A0F1640320A2142106A80EF0CAFD8C
:100DC0000446601C28B9214623A00EF0B3FD002084
:100DD00060E714220BA913483A30FFF730FA1422C7
:100DE00006A910484E30FFF72AFA20210D4880F856
:100DF000611080F84D104FF47A70B6FBF0F100FBF3
:100E0000116010B94FF47A7005E04FF47A70B6FBB8
:100E1000F0F100FB11608246024A02210AF06AFAF0
:100E2000012037E76C75002018620020F075002063
:100E30005C620020943F00203230253032642D2542
:100E40003032642D253032642D253032642D25302A
:100E500032642D2530326400736E7072696E746670
:100E6000206572726F722C20746865206C656E202C
:100E7000697320256400000010B500200A498880AD
:100E8000C88008814881782107480C30FFF7F0F9C5
:100E9000782105488430FFF7EBF978210248FC30CF
:100EA000FFF7E6F9012010BD907200202DE9FE4FFA
:100EB00004460D4603F058F80746002002900190C2
:100EC00014B1062D00DB17B90020BDE8FE8FA6780F
:100ED00094F803806078217840EA01290B2D25D908
:100EE0000B2230A12046FFF7E7F9F8B9A5F10B0076
:100EF0000F2805D911212EA00CF088F90020E4E775
:100F000030480021016041608160C160A5F10B02A1
:100F100004F10B01FFF793F91C232A4A0021012059
:100F200010F074FA142128A00CF070F945F6A520F1
:100F3000814534D1F01CA84201D00020C5E7B8F1AA
:100F4000830F2CD16079217940EA012AA0794006EB
:100F50004FEA106BE01D0090BAF5805F19D1B01C0C
:100F6000215C701C205C41EA00200190B01C205CD8
:100F700000F07F00029039799DF8080061F3DF10DE
:100F800000F580500199884208D102A801F080FD47
:100F900004E05A465046009901F086FD00BF01204A
:100FA00093E700007365742070696C6549643A00CA
:100FB0007365742070696C654964206661696C0DA5
:100FC0000A000000F07500207365742070696C657C
:100FD000496420737563636573730D0A0000000034
:100FE000014609B10020704701480078FBE7000086
:100FF0004F03002001460A2901DD00207047014807
:10100000405CFBE7E15A002010B5044620460DF095
:1010100077F810BD0146012901DB0020704701EB84
:10102000C10000EB0110024A02EBC000401CF5E7D2
:101030000C7600200148007870470000DC02002098
:1010400001460A2901DD002070470148405CFBE7AA
:10105000DF5A00200146012901DB00207047C1EB67
:10106000C100024A12F82000F8E70000E851002011
:101070000148407970470000DE5A0020014800789E
:1010800070470000DE5A00200146074890F86600CD
:10109000884201DC00207047C1EBC10000EB411029
:1010A000024A02EBC000F6E756020020C8520020B8
:1010B00010B53D484089401C3B4948814FF6FF70C0
:1010C000088108460088888008468088401EC880BD
:1010D000084680884FF47A7190FBF1F201FB120010
:1010E00008B9084607E0304880884FF47A7190FBD1
:1010F000F1F201FB120084B22B4A0C32012120468E
:101100000AF0F8F8782228490C3101F1F000FFF7D5
:1011100096F82548C088002819DD2348C0884FF478
:101120007A7190FBF1F201FB120008B9084607E062
:101130001D48C0884FF47A7190FBF1F201FB120058
:1011400084B2194A8432012120460AF0D3F81648A5
:10115000808820B90021154801F0A0FF22E0124844
:10116000808801280FD112490F480C3001F0A6FEEB
:101170000D4841894FF4FC5008F0F0FC00210C4868
:1011800001F08CFF0EE00B4907480C3001F096FE91
:10119000054841894FF4F85008F0E0FC002105486B
:1011A00001F07CFF012010BD907200209C06002001
:1011B000880600207406002070B5044640E03848D8
:1011C0004089401C36494881084680880881084685
:1011D000C08888800846C088401EC88078220C31AC
:1011E00001F1F000FFF72BF878222D498431A1F1AD
:1011F0007800FFF724F82A48C08800281FDD284817
:101200004089B0F57A7F1ADA2548C0884FF47A71A0
:1012100090FBF1F201FB120008B9084607E02048F4
:10122000C0884FF47A7190FBF1F201FB120085B295
:101230001B4A8432012128460AF05CF800E004E0F1
:10124000201EA4F10101CCB2B9D100BF1448C0885E
:1012500020B113484089B0F57A7F0FDB114910485F
:101260000C3001F02BFE0E4841894FF4FC5008F081
:1012700075FC00210B4801F011FF0EE00A490848F7
:101280000C3001F01BFE064841894FF4F85008F07D
:1012900065FC0021044801F001FF012070BD000041
:1012A00090720020880600207406002070B5044665
:1012B00054E046484089401E444948810846808899
:1012C000C88008460089888078220C3101F17800B6
:1012D000FEF7B5FF78223D49FC31A1F1F000FEF7A1
:1012E000AEFF3A480089002824DD38480089374994
:1012F000096888421ED835480089401C3349088156
:10130000084600894FF47A7190FBF1F201FB12005C
:1013100008B9084607E02D4800894FF47A7190FB20
:10132000F1F201FB120085B2284AFC320121284665
:1013300009F0E0FF2548008928B1244800892349A5
:10134000096888420AD922480078401C2049087060
:1013500000201E4908810120488104E0201EA4F1DC
:101360000101CCB2A5D100BF1948007802280DD1E7
:101370001648008950B90020164988700021164887
:1013800001F08CFE0020124908701CE00F48808894
:101390004FF6FF71884207D100200E498870002166
:1013A0000D4801F07BFE0EE00C4908480C3001F0BE
:1013B00085FD064841894FF4F85008F0CFFB002125
:1013C000064801F06BFE012070BD00009072002005
:1013D000140400201004002058040020740600208B
:1013E0000246032900DA0AB1002070470148017063
:1013F0000120FAE74F03002002460A2A01DD0020FF
:1014000070470248815400BFFAE70000E15A00200B
:1014100001460D4890F86600884201DC00207047C4
:10142000094890F86600012804D10020074A10708E
:10143000074A107000220548401C4254801C425448
:101440000A3042540120EAE756020020DE5A00200A
:10145000DC02002010B5012800DB10BDC0EBC0028B
:10146000054B03F822100022C0EBC003024C04EB32
:1014700083031A7600BFF0E7E851002001460248D6
:101480004171012070470000DE5A00200246022907
:1014900001DA012A01DB0020704702488154012053
:1014A000FAE70000540200207047000010B513480E
:1014B00006F00CFD124908600846006811490968E9
:1014C000401A40F6B83188420FD20D4800680D49E5
:1014D00008600D480078401CC0B20B490870032812
:1014E0000ADB00200870012010BD0548006805498E
:1014F00008600020044908700020F5E70000002083
:1015000004040020080400200004002070B50546F3
:101510000C4616460CB9002070BD032106488176A2
:101520006178207841EA00210348C1610021034825
:1015300001F0B4FD0120EFE7943F002044040020B7
:1015400038B504463B4A08214FF4FA6006F062FCC5
:101550003948007E012800D038BD6A4637A13A4894
:1015600005F0D4FABDF8000000B1F5E74FF4807142
:10157000364802F0EEFC2F4A0821642006F04AFCAF
:101580004FF40061314802F0E2FC4FF480512F48E3
:1015900002F0DDFC274A0821FA2006F03BFC0AF0A5
:1015A000A3FB45E0FFF764FD10B901F00FF939E046
:1015B0000020FFF745FD012834D1254803F0EAFF5C
:1015C000C8B10020234908700120FFF76DFF0020FB
:1015D000FFF754FF0AF024FE164A08214FF47A70F0
:1015E00006F018FC134A08214FF4FA6006F012FCCA
:1015F00003F0EAFC16E017480078401CC0B2154919
:10160000087003280EDD00200870FFF74DFF002052
:10161000FFF734FF0AF004FE064A08214FF47A70FF
:1016200006F0F8FB034A08214FF47A7006F0F2FB4B
:10163000B8E7000000000020F075002073656E64BC
:101640006D757465780000000452002000080140A8
:1016500030520020C402002070B588B00646002534
:10166000182101A8FEF704FE984A08214FF4FA60F9
:1016700006F0D0FB0BF008FD07AB142294A19748AD
:1016800005F06AFCBDF81C0028B191A194A00EF0F1
:1016900051F908B070BD9748007E012800D0F8E7E6
:1016A00000240DE0894806F011FC934941F824001C
:1016B000084650F82400914941F82400601CC4B247
:1016C0008F4890F86600A042ECDCFDE0002407E0C3
:1016D0007E4806F0FBFB884941F82400601CC4B238
:1016E000874890F86600A042F2DC854890F86600D2
:1016F00000B900BF4FF47A7040F21A43814A01A941
:101700000090764810F096FA00287AD101980A28BD
:1017100077D17B4890F86600012823D10020FFF79D
:101720008FFC012819D1FFF7A3FC012804D17548CB
:1017300005990AF047FB09E0059881B271480CF061
:101740008BFC18B16C4800686C49086040F21A4183
:101750006C48FEF78DFD00BF53E06A4805990AF01A
:1017600031FB4EE0674805990AF02CFB002443E06A
:10177000C4EBC40000EB4410634901EBC00090F8D7
:101780003601012836D10020C4EBC40101EB44111D
:101790005D4A02EBC10181F836019CB9C4EBC40279
:1017A00002EB4412584B03EBC202B2F83411C4EB03
:1017B000C40202EB441203EBC20202F108000CF077
:1017C0004BFC0DE0C4EBC40000EB44104E4901EBB0
:1017D000C000007A682803D101210846FFF70CFEFB
:1017E000454850F82400454941F824000020474965
:1017F00041F82400601CC4B2414890F86600A04241
:10180000B6DC00245BE02046FFF71AFC01284ED12D
:101810003B4890F86600012819DD3C4850F8240048
:10182000401C3A4941F824000D2810D3002041F80B
:10183000240034B900231A4619461E2010F03CFB40
:1018400005E000231A4601211F2010F035FB2A482D
:1018500050F82400294951F8241088420DD3264815
:1018600050F82400254951F82410401A284988428C
:1018700001D3012010E000200EE01F4850F82400A2
:101880001E4951F82410C1F1FF3108442049884213
:1018900001D3012000E0002078B1174850F824005F
:1018A000164941F824002046FFF7B2FD05E0124832
:1018B00050F82400114941F82400601CC4B21048BB
:1018C00090F86600A0429EDC00E7000000000020C7
:1018D00034472073656E64206D7100000054002051
:1018E0004F535143726561746520257320466169C9
:1018F0006C000000F0750020D0020020CC02002017
:101900005602002030540020C8520020C802002097
:10191000905F0100F0B589B00746182102A8FEF7D4
:10192000A7FC0020FFF776FB05460120FFF772FBBE
:1019300006460024B34A08214FF4FA6006F06AFA1A
:10194000B148007E012801D009B0F0BD08AB1422D7
:10195000AEA1B14805F000FBBDF8200020B1ABA15D
:10196000AEA00DF0E7FFEFE74AE14FF47A700A23EB
:10197000AF4A02A90090A84810F05CF900286ED187
:10198000FFF776FB012800D13AE10498202867D2BE
:10199000DFE800F010A3A327A36D545DA3787B803C
:1019A000858EA38F90375A7275598AA3A3A3A3A3D8
:1019B000A3A3919AFFF762FB012811D10020FFF742
:1019C0003FFB01280CD1059850B90599C8B20CF01D
:1019D00077FB984890F86600012801DD0CF00EFBBB
:1019E0007CE0FFF74BFB01280AD10020FFF728FB22
:1019F000012805D1059818B90599C8B20CF067FB04
:101A00006CE0059890B90599C8B201210BF0ACFFC4
:101A10000599C8B20121FFF71DFD0599C8B20CF068
:101A200023FB0599C8B200210CF05BFB814890F8BC
:101A30006600012801DD0BF0D7FF4FE00599C8B221
:101A40000CF023FB4AE049E00DF062FA46E005980D
:101A500038B901222946002008F0DEFF06E03EE00A
:101A60003BE001223146104608F0D6FF36E00599EA
:101A7000C8B20CF014FB31E00CF00FFB2EE00CF0C0
:101A800011FB2BE00CF017FB28E00599C8B20CF015
:101A9000F9FA23E00599C8B20CF0F1FA1EE00599B5
:101AA000C8B20CF01BFB19E005980CF0FDFA15E02C
:101AB00014E013E012E05F4890F86600012802DDB0
:101AC00000200AF0C1FB09E05A4890F8660001289E
:101AD00002DD01200AF0B8FB00E000BF00BFFFF705
:101AE000C7FA012800D18BE0002410E0FFF7C6FA06
:101AF00001280AD12046FFF7A3FA012805D114B91D
:101B00000CF0C6FA01E00CF095F9601CC4B249482B
:101B100090F86600A042E9DC464890F8660001288B
:101B200027DD454800684549096888420CD342488A
:101B3000006842490968401A42F21071884201D394
:101B400001200FE000200DE03C480068C0F1FF30AC
:101B500039490968084442F21071884201D30120D2
:101B600000E0002028B134480068344908600AF0D9
:101B7000EFFB002441E02046FFF76CFA01281AD160
:101B8000FFF77CFA01282AD12046FFF759FA0128ED
:101B900025D12046FFF72EFA012820D12CB90022AA
:101BA0002946204608F038FF19E000223146204639
:101BB00008F032FF13E0134806F088F9C4EBC401C3
:101BC0001F4A02EB81014860C4EBC400114601EBDF
:101BD00080004068C4EBC40102EB81018860FFF71C
:101BE0004DFA012807D12046FFF72AFA012802D131
:101BF0002046FFF7FFF9601CC4B2012CBBDB00BF1D
:101C0000B3E6000000000020F07500203447207388
:101C1000656E64206D710000A45A00204F5351433B
:101C20007265617465202573204661696C0000004F
:101C3000D45A002056020020D4020020D8020020EE
:101C4000E851002088B000200690079000BF00BF38
:101C500018216846FEF70CFB08F07AF808F04AFAFB
:101C6000412008F08FF8644A08214FF47A7006F09A
:101C7000D1F8C0E0FFF7FCF9012800D1BBE002F089
:101C800073F904465C4A08214FF47A7006F0C2F8F2
:101C900010F0BEFB5948007A01284CD158488442C4
:101CA00002D05848844246D15748007E01282CD1A2
:101CB0000EF044F900283ED0544855490A680260A5
:101CC0004A684260098901810020FFF793F90128E1
:101CD00006D100231A4619460B2010F0EDF800E05B
:101CE00000BF40214B4802F034F9434A08216420E8
:101CF00006F090F84021474802F029F93E4A0821B1
:101D000040F6B83006F086F815E010F02FFC90B1E0
:101D10004021404802F01DF9374A0821642006F0AE
:101D200079F840213B4802F012F9334A082140F685
:101D3000B83006F06FF83148007A02285AD132489C
:101D4000007E01282FD100200CF07CF9012851D110
:101D50000EF0F4F800284DD00A222D492B48FEF74A
:101D6000ABFA30B9002304221946022010F096FA8B
:101D700005E000231A46284918460FF00FFF4021BE
:101D8000244802F0E6F81C4A0821642006F042F8D4
:101D90004021204802F0DBF8174A082140F6B8300D
:101DA00006F038F826E01D48D0F862026421B0FB46
:101DB000F1F5284610F0F2FDE0B11048007898B92E
:101DC0004021144802F0C5F80B4A0821642006F0AF
:101DD00021F840210F4802F0BAF8074A082140F6DE
:101DE000B83006F017F805E000231A460C491846EB
:101DF0000FF0D4FE00BF3DE7000000205C62002031
:101E00004404002084050020F07500205162002069
:101E100068620020001C0140E4040020943F002080
:101E2000F804002008B50EF0F1FE6A46082164208F
:101E300005F0F0FF0EF0D4FF0DF0F6FF17E0FFF70E
:101E400017F9012800D112E00FF0DCFC0EF04AFF78
:101E50000EF01AFA0EF0D0FE05480EF0C3FD00F0A9
:101E600081FC044A0821012005F0D4FF00BFE6E709
:101E7000943F00200000002000B58BB00AA8032189
:101E800000220592CDE9062108901420FA2119229A
:101E9000424BCDE90132CDE903101E200023404A18
:101EA00040A10090424805F0E7FB0AA80321002268
:101EB0000592CDE906210890142096210F223D4B72
:101EC000CDE90132CDE90310062000233A4A3BA1B7
:101ED00000903D4805F0D0FB0AA80321002205929E
:101EE000CDE90621089014204FF4AF712322374B1F
:101EF000CDE90132CDE9031007200023344A35A192
:101F00000090374805F0B8FB0AA80321002205928B
:101F1000CDE90621089014204FF496711E22314B12
:101F2000CDE90132CDE90310082000232E4A2FA16C
:101F30000090314805F0A0FB0AA803210022059279
:101F4000CDE9062108901420FA2119222B4BCDE966
:101F50000132CDE9031003200023294A29A1009072
:101F60002B4805F089FB0AA8032100220592CDE940
:101F70000621089014204FF496711E22254BCDE9BE
:101F80000132CDE903100A200023234A23A1009047
:101F9000254805F071FB0BB000BD0000180A0020B9
:101FA000451C00084170702043617264000000000D
:101FB00060090020B80E0020251E00084170702026
:101FC0004368617267650000000E0020C8110020A0
:101FD0002D200008417070204477696E00000000D9
:101FE00010110020F81700204115000841707020E2
:101FF00034474D61696E000040170020601D0020CD
:10200000591600084170702034475265637600000D
:10201000A81C002000220020151900084170702023
:10202000344753656E6400004821002030B589B004
:1020300005460024182103A8FEF71AF9994A082139
:102040004FF47A7005F0E6FE0BF08EF8002196480A
:1020500001F024F80FF002FA08F050FD9348007EDA
:10206000012801D108F04AFD01AB142290A1944847
:1020700004F072FFBDF8040028B18DA191A00DF00D
:1020800059FC09B030BD0CE1FEF7F2FF012800D188
:1020900007E14FF4FA7032238F4A03A90090884871
:1020A0000FF0C8FD00287DD10398012842D00428F4
:1020B00007D0062877D10798C1B28748FEF7F6FE09
:1020C000D1E004B9CFE085490698884213D084490D
:1020D000069888420FD08349069888420BD08249DF
:1020E0000698884207D081490698884203D08049E3
:1020F0000698884216D1794884421AD0784884429A
:1021000017D07848844214D07748844211D0774859
:1021100084420ED00220774988702146069800F04C
:10212000BDFF06E00020734988702146069800F044
:10213000B5FF98E0059820B1012811D002287DD183
:1021400051E05A48007E012809D1012100200BF0FE
:102150000BFC00231A46194618460FF0ADFE7FE02F
:10216000654866490A6802638A888286897980F8A8
:1021700036100F38D0F84610C0F84A100698C1B291
:102180005D480F3880F866124848007E012815D156
:102190000AF038FC5A490B6857490F3991F8660222
:1021A0000F2201E060E05DE00021FEF72DFD00233D
:1021B0001A46194618460FF07FFE13E04A48A0421F
:1021C00006D002204B4988702146464800F066FF41
:1021D0004B490B6848490F3991F866020F220121DB
:1021E000FEF712FD3CE0444844490A6802638A88CD
:1021F0008286897980F8361000200EF093FD3E49E2
:102200000F39C1F84A000698C1B23B480F3880F830
:1022100066122648007E012814D10AF0F3FB002341
:102220001A46194611200FF047FE35490B6832490E
:102230000F3991F866020F22002100E00FE0FEF74F
:10224000E3FC09E02E490B682B490F3991F866022F
:102250000F220121FEF7D8FC10F0A6F800E000BF25
:1022600000BF00E000BF00BF01F07EFE04461CB1CD
:10227000E06808B1E06880471E480088012804D162
:102280000220029002A800F003FC1B490F390878D5
:102290000FF0D6FE0EF062FE0EF078FF0FF0A2FEF9
:1022A00000BFF1E60000002070050020F07500205E
:1022B0006477696E207461736B206D71000000009B
:1022C000087A00204F53514372656174652025736D
:1022D000204661696C0000009C7A0020D004002038
:1022E000E4040020F80400200C0500202005002054
:1022F0008405002010040020A33F002020000020BF
:102300009072002008B5002500F0B8F94FF4E130D4
:102310000AF0C0FF00F0BAF900F0A8F90646A74895
:102320000068B6FBF0F7384605F00EFE684605F08B
:1023300029F90AF01FFB01F039FA0EF0D9FF02F07B
:102340008DFB9FA00DF0F6FA90200EF069FD02F0D3
:102350009DFE41F61F4140F2E7300AF0EBFCFFF72B
:102360008BFDA4480068A449086008460068000E78
:10237000096801F47F0140EA11209F49098801F4AE
:102380007F4140EA01209C49097840EA01609A496E
:1023900008609848001D0068984908600846006871
:1023A000000E096801F47F0140EA11209349098871
:1023B00001F47F4140EA01209049097840EA016038
:1023C0008E4908608B48083000688D4908600846CF
:1023D0000068000E096801F47F0140EA1120884975
:1023E000098801F47F4140EA01208549097840EAE3
:1023F00001608349086008460368804802687E4897
:10240000016880A00DF096FA84487B490968016054
:102410007A49096841607A4909688160804876494B
:102420000968C0F8111075490968C0F81510744999
:102430000968C0F8191000BF08E079481130405D04
:1024400018B9AA217648113041556D1C0C2DF4D3D2
:1024500040F25371062002F0CDFAADE002F0EAFA44
:1024600070480068401C6F4908606A460821642073
:1024700005F0D0FC01F0C6F86B4880786B49087114
:102480006948C07864308871674840784871684806
:102490000078887066484078487065488078087091
:1024A0006448D0F8A0006349D1F8A4100144614801
:1024B000D0F8A00064225043B0FBF1F45E480068FD
:1024C000A04201DA5C4804605C48D0F8A0005B4997
:1024D000D1F8A41001445948D0F8A0006422504318
:1024E000B0FBF1F456480068A04201DA5448046099
:1024F0005448D0F8A0005349D1F8A41001445148E1
:10250000D0F8A00064225043B0FBF1F44E480068BC
:10251000A04201DA4C4804604C48D0F8A0004B4976
:10252000D1F8A41001444948D0F8A00064225043D7
:10253000B0FBF1F446480068A04201DA4448046068
:102540004448D0F8A0004349D1F8A41001444148C0
:10255000D0F8A00064225043B0FBF1F43E4800687C
:10256000A04201DA3C4804603C48D0F8A0003B4956
:10257000D1F8A41001443948D0F8A0006422504397
:10258000B0FBF1F436480068A04201DA3448046038
:102590003448D0F8A0003349D1F8A41001443148A0
:1025A000D0F8A00064225043B0FBF1F42E4800683C
:1025B000A04201DA2C48046050E70000604801089E
:1025C000757361727420496E69742E2E2E2E2E2E14
:1025D0002E2E2E2E2E2E2E2E2E2E2E2E2E2E2E2E1B
:1025E0002E2E2E2E2E2E2E2E2E2E2E2E2E2E2E2E0B
:1025F0000D0A0000E8F7FF1F300000203400002023
:10260000380000204D43552049643A253038782061
:102610002530387820253038780A0000B026002090
:10262000186200200C0700201C020020200000205F
:102630001802002018070020040000206009002074
:1026400008000020000E00200C00002010110020C7
:10265000100000204017002014000020A81C0020BB
:1026600018000020482100201C00002000B585B083
:10267000684607F0C1FF009805B000BD10B54FF4E3
:10268000407004F009F910BD00BFFEE710B500F07E
:102690001FF800F019F810BD10B5002400BF00BFEE
:1026A000FDF786FD044600BF00BF1021054802F07B
:1026B000BBFD00BF00BF2046FDF77EFD00BF00BF91
:1026C00010BD0000F439002010B5FFF7E5FF10BD84
:1026D00010B500200249086000F00AF810BD0000A3
:1026E000500100200149086070470000500100209F
:1026F00010B5FFF7BBFF04460848006840F0807043
:10270000064908600020064948600846006840F015
:10271000010008602046FFF7E5FF10BDFCED00E07A
:10272000001000E00149486870470000001000E018
:1027300010B50221002008F03BFD07490860022186
:10274000012008F035FD054908600221132008F03A
:102750002FFD0349086010BDB4010020B80100201E
:10276000BC01002010B50E480078012815D10D4895
:102770000DF0CEFE012810D10B4A0821C82005F02B
:1027800049FB02200649087200200870074880783B
:10279000022802D1002005498870012010BD0000E8
:1027A0005C620020943F0020000000201004002004
:1027B00010B500200449086004230A4600210520C2
:1027C0000EF024FE012010BD9072002010B5FEF71F
:1027D00055FC012801D003F07DF8FEF74FFC0128DD
:1027E0000CD02D480068401C2B490860032803D9F1
:1027F0000020086009F078FA002010BD002423E0D2
:102800002046FEF71DFC01280FD044B92348B0F83C
:10281000542000F15601204602F03AFD05E042F254
:1028200048621FA1204602F033FD2046FEF708FC57
:10283000012807D018480068401C17490860204646
:1028400009F046FA601CC4B2144890F86600A04231
:10285000D6DC002407E02046FEF7F2FB012800D179
:1028600006E0601CC4B20D4890F86600A042F2DC9D
:1028700000BF0020FEF7E4FB01280AD006480068EC
:10288000032806D900200449086009F02DFA002029
:10289000B3E70120B1E70000C0020020560200208B
:1028A0003131342E35352E3138362E323036000067
:1028B0000146632901DD002070470A2091FBF0F3F7
:1028C00000FB13100A2391FBF3F300EB0310C2B2D9
:1028D0001046F1E721B1026842F00102026004E013
:1028E00002684FF6FE731A400260704700210160D3
:1028F00041608160C160016141618161C1610162CA
:1029000041628162704710B50022026847F6F07399
:102910009A430C6A8B6823430C6923434C69234315
:102920008C692343CC6923434C6A23438C6A234339
:102930001A430260CB6843600B6883604B68C360D6
:1029400010BD000001684FF6FE72114001600021C9
:10295000016041608160C1604B49884208D14A49A9
:102960000839496841F00F01474A083A51608AE046
:1029700045491431884208D143490839496841F032
:10298000F001414A083A51607DE03F4928318842D0
:1029900008D13D490839496841F470613A4A083A1A
:1029A000516070E038493C31884208D136490839D5
:1029B000496841F47041344A083A516063E0324951
:1029C0005031884208D130490839496841F47021B2
:1029D0002D4A083A516056E02B496431884208D1AB
:1029E00029490839496841F47001274A083A516079
:1029F00049E025497831884208D123490839496896
:102A000041F07061204A083A51603CE01F49884219
:102A100006D1011F096841F00F01021F116032E069
:102A20001A491431884208D11849091F096841F030
:102A3000F001164A121F116025E01449283188421E
:102A400008D11249091F096841F470610F4A121F29
:102A5000116018E00D493C31884208D10B49091F2B
:102A6000096841F47041094A121F11600BE00749DF
:102A70005031884207D10549091F096841F4702186
:102A8000024A121F11607047080002400804024009
:102A900070B5054601F068FA04460CB9A06810B19B
:102AA0002846A168884770BD2DE9F04105460E46CD
:102AB00017460DB106B117B90020BDE8F08100241A
:102AC00014E00C4830F83400A8420DD1094800EB5E
:102AD000C400406840B1074800EBC4003A463146A4
:102AE000436828469847E8E7601CC4B20C2CE8D33A
:102AF0000120E2E7DC4C01087047002107E00022DA
:102B000001E0531C9AB26E2AFBDB4B1C99B2814246
:102B1000F5DB704737B5A4B0044601F025FA054649
:102B200015B9002027B030BD782106A8FDF7A0FB1D
:102B30009DF894009DF895109DF896209DF898308A
:102B4000CDE90132CDE903109DF8990000909DF880
:102B50009A0000F26C7308A2782106A80CF0FAFE25
:102B6000217941F2050242EAC1101E2206A907F0AE
:102B70001DF80120D6E70000253034642D2D2530C6
:102B800032642D2D253032642D2D253032643A3AB1
:102B9000253032643A3A2530326400002DE9F041A4
:102BA00006460D46002401F0DFF90746112D00DA34
:102BB00017B90020BDE8F081002417E004EB4400C1
:102BC0000D4911F82000A8420ED104EB44000B4639
:102BD00003EB8000028904EB440003EB80004168B2
:102BE0003046FDF72CFB03E0601CC4B2112CE5DB82
:102BF00000BF0120DEE70000204B01082DE9F04175
:102C000006460D46002401F0AFF90746112D00DA03
:102C100017B90020BDE8F081002417E004EB440060
:102C20000D4911F82000A8420ED104EB44000B46D8
:102C300003EB8000027A04EB440003EB8000416860
:102C4000304606F0B3FF03E0601CC4B2112CE5DB94
:102C500000BF0120DEE70000204B010837B5A4B01B
:102C6000044601F081F9054615B9002027B030BDB2
:102C7000782106A8FDF7FCFA9DF894009DF89510C0
:102C80009DF896209DF89830CDE90132CDE90310EA
:102C90009DF8990000909DF89A0000F26C730BA2C9
:102CA000782106A80CF056FE1E2206A9204606F042
:102CB0007DFF4FF6C07204EA0201303188B24FF650
:102CC000FF7109F059FD0120D0E700002530346480
:102CD0002D253032642D2530326420253032643A7F
:102CE000253032643A253032640000002DE9F0418D
:102CF00006460D46002401F037F90746142D00DA88
:102D000017B90020BDE8F081002417E004EB44006F
:102D10000D4911F82000A8420ED104EB44000B46E7
:102D200003EB8000028904EB440003EB8000416860
:102D30003046FDF784FA03E0601CC4B2142CE5DBD6
:102D400000BF0120DEE70000EC4B010810B557483A
:102D5000007E012837D10020FEF772F990B10020E3
:102D600053490870084600785249097888421BD0B8
:102D70004F4800784F490870012142F2600006F088
:102D8000D9FE11E001204A490870084600784949F7
:102D90000978884208D046480078464908700021E2
:102DA00042F2600006F0C6FEFEF744F960B9424800
:102DB0000078012808D1002142F2500006F0BAFE46
:102DC00000203D4908706FE0FEF734F918B1FEF7B6
:102DD00031F9632812D100203549487008464078FF
:102DE0003449497888425FD0314840783149487049
:102DF000002142F2500006F09DFE55E0FEF71AF960
:102E0000012811D12A494870084640782949497853
:102E1000884249D02648407826494870012142F22C
:102E2000500006F087FE3FE0FEF704F9142812DA9E
:102E300002201F494870084640781E494978884258
:102E400032D01B4840781B494870022142F25000A2
:102E500006F070FE28E0FEF7EDF8192812DA0320DC
:102E600013494870084640781249497888421BD077
:102E70000F4840780F494870032142F2500006F095
:102E800059FE11E004200A49487008464078094973
:102E90004978884208D0064840780649487004219D
:102EA00042F2500006F046FE012010BDF0750020F1
:102EB00020040020220400202404002070B50446D1
:102EC0000D4678215F48FDF7D3F9207C0006218A62
:102ED00001F47F4140EA0120216901F47F0140EAC9
:102EE0001120216940EA1160564908600A2204F164
:102EF0006C015448001DFDF7A2F9142204F11C01D5
:102F000050480E30FDF79BF9207D0006A18A01F4A0
:102F10007F4140EA0120616901F47F0140EA11200C
:102F2000616940EA1160474948620A2204F13001B0
:102F300044482830FDF783F9424920684863084631
:102F4000D4F862108163D4F86610C163B4F86A10D3
:102F5000A0F84010423061680160A1684160A18919
:102F600001816421A069B0FBF1F000066422A1692F
:102F7000B1FBF2F101F47F4140EA0120A169B1FB0C
:102F8000F2F101F47F0140EA1120A169B1FBF2F1F5
:102F900040EA11602B49C864142204F13A0129481F
:102FA0005030FDF74CF9142204F14E0125486430ED
:102FB000FDF745F9297941F2010242EAC1102222C6
:102FC000204906F0F3FD297941F2120242EAC110CC
:102FD00004221C49243106F0E9FD297941F214024A
:102FE00042EAC1100A221749283106F0DFFD29798B
:102FF00041F2190242EAC11004221249343106F0AA
:10300000D5FD297941F21B0242EAC1100A220D497D
:10301000383106F0CBFD29794FF4815242EAC110D4
:103020000E220849423106F0C1FD297941F25002D1
:1030300042EAC11028220349503106F0B7FD0120B1
:1030400070BD0000047400201CB5084801680091A0
:103050008188ADF8041080798DF806004FF4405057
:10306000DDE90012FFF7FAFD00201CBD2000002062
:103070001CB50848016800918188ADF8041080797A
:103080008DF806000448DDE90012FFF743FD00203B
:103090001CBD0000200000205C05002070B5044627
:1030A0000D4604B970BD05B125600C480460208A46
:1030B0000B49088009490968087906F035FD074879
:1030C0000068C06840B105480068C068401C18B17D
:1030D00002490968C868804700BFE3E70C04002084
:1030E000100400202DE9F04107460E46144606B1B3
:1030F0000CB9BDE8F08100F01DF8E11CC8B201F088
:1031000083FF822001F080FF384601F0B5FF0025E3
:1031100004E0705D01F078FF681CC5B2A542F8DBE1
:10312000FF2001F071FFFF2001F06EFF01F08EFF24
:1031300000BFDEE710B545F6A52001F09DFF10BDEC
:10314000014600BF080900EB8000420001F00F00BB
:103150001044C0B270470146002204E0501CC2B2C5
:10316000A1F10A00C1B20A29F8DA100741EA106099
:103170007047000010B50121080707F0F9F9012098
:1031800006F080FC012007F013FA002007F010FA87
:10319000012007F0B3FB00BF412007F091FB00289E
:1031A000FAD04FF4807007F01FFAFF200D49086035
:1031B0007F200D490860012007F010FA00F054FA52
:1031C000094800680949486006480068886000208E
:1031D0000860084600F0E4F810B905A00CF0AAFB5E
:1031E00010BD00002C02002028020020883F002093
:1031F00045525443205072657363616C657220437D
:103200006F6E666967206661696C656421210D0ACD
:103210000000000008B50022009200200021104AA2
:10322000126802F04002CAB9421E0D4B1A6000BF7C
:103230000B4A126802F04001009A521C0092009A58
:10324000B2F5803F01D00029F2D0054A126802F0A1
:1032500040020AB1012002E0002000E0012008BD88
:103260000C2800400348006820F0800001490860F5
:10327000704700000C28004038B505460C46002079
:1032800000901348006800901148001F0068114921
:10329000084000900098000CE0700098C0F30420F3
:1032A0006070009800F03F00A0700098C0F34230BA
:1032B00020705DB9E078FFF743FFE0706078FFF7BA
:1032C0003FFF6070A078FFF73BFFA07038BD0000A3
:1032D000082800403FFFFF0038B505460C46002097
:1032E000009014480068009012480838006812499D
:1032F000084000900098C0F3054020700098C0F38B
:1033000006206070009800F07F00A070009800F424
:103310008000000CE0705DB92078FFF711FF20708D
:103320006078FFF70DFF6070A078FFF709FFA070CD
:1033300038BD0000082800407F7F7F00CA22174B5D
:103340001A6053221A6091B1144A1C3A126820F094
:1033500004031A43114B1C3B1A60104A1C321268BA
:1033600000F004031A430D4B1C331A6011E00B4AA2
:103370001C3A126820F004039A43084B1C3B1A6065
:10338000064A1C32126800F004039A43034B1C33B4
:103390001A60FF22014B1A60704700002428004089
:1033A00030B504460025CA2015490860532008603E
:1033B000FFF730FF00B91DE011481C38006820F00D
:1033C00040000F491C39086008460068216808431E
:1033D0000B491C3908600A491439A068086008467E
:1033E0000068A18840EA0140054914390860FFF7E8
:1033F00039FF0125FF2002490860284630BD000042
:103400002428004008B501460020009004480090A0
:10341000009800EB810000900098006808BD000053
:10342000502800402DE9F04105460C4600260027B3
:103430004DB9607800F01000102804D1607820F0B9
:1034400010000A30607005B908E06078FFF778FE78
:103450000646A078FFF774FE064600BF55B1E07837
:103460000004617840EA0120A1780843217840EA0D
:10347000413611E0E078FFF76EFE4FEA00486078D1
:10348000FFF769FE48EA0028A078FFF764FE48EAE3
:103490000008207848EA4036CA20124908605320C4
:1034A0000860FFF7B7FE08B9002714E00E48304067
:1034B0000C4920390860FFF7D5FE0A481C3800681F
:1034C00000F0200030B900F0CFF808B9002702E082
:1034D000012700E00127FF20024908603846BDE8C7
:1034E000F0810000242800403FFFFF002DE9F0415B
:1034F00005460C46002600274DB92E48006800F00E
:10350000400000B102E00020E07000BF0DE029485B
:10351000006800F0400020B12078FFF711FE064659
:1035200002E00020E07000BF00BF55B12078000429
:10353000617840EA0120A1780843E17840EA014639
:1035400011E02078FFF707FE4FEA00486078FFF7A8
:1035500002FE48EA0028A078FFF7FDFD48EA0008CF
:10356000E07848EA0046CA2012491C31086053201E
:103570000860FFF74FFE08B9002713E00E483040FF
:103580000C4908390860FFF76DFE0A48006800F032
:10359000200030B900F068F808B9002702E00127E0
:1035A00000E00127FF2003491C3108603846BDE8D0
:1035B000F0810000082800407F7F7F0010B50020C8
:1035C0000E49C870082008701020487000208870CC
:1035D0000120FFF78BFF052009490870092088703A
:1035E000072048702220C8700120FFF71BFF43F21C
:1035F000F221002000F068F810BD00001802002041
:103600001C02002010B504490020FFF735FE0349D5
:103610000020FFF761FE10BD1C02002018020020F0
:103620000EB502208DF8080001208DF80B008DF8F2
:10363000090000208DF80A0002A803F0F5F84FF405
:103640000010009001208DF8060000208DF8040085
:1036500008208DF80500684600F044F80121C803F1
:10366000FFF76CFE0EBD000008B50022009200209E
:103670000021CA22134B1A6053221A60114A183AC9
:10368000126822F0A0020F4B183B1A6000BF0D4ACF
:10369000183A126802F02001009A521C0092009A17
:1036A000B2F5003F01D00029F1D0064A183A12685D
:1036B00002F020020AB1012000E00020FF22014BAD
:1036C0001A6008BD2428004008B500220092044A70
:1036D0000092009A02EB80020092009A116008BDED
:1036E00050280040002123498279002A3AD00A4616
:1036F000126803689A430B461A600A1D1268036831
:103700009A430B1D1A60027911440A6803681A4330
:103710000A60184A0832126803689A43154B083346
:103720001A601A1D126803689A43124B0C331A6010
:103730004279102A0ED11A1F126803681A430D4BE2
:1037400008331A601A1D126803681A43094B0C33B8
:103750001A600DE00749427911440A6803681A4368
:103760000A6005E0027911440A6803689A430A6016
:10377000704700000004014070B505460C4616462F
:103780000CB9002070BD012106488176617820784F
:1037900041EA00210348C16100210348FFF77EFC94
:1037A0000120EFE7943F00204404002008B50020EA
:1037B000009010214E4800F0CCFB08F087FC08F088
:1037C00075FC0020009008F091FC08F09BFB01289C
:1037D00002D108F0E5FB0090009820F0FF00454979
:1037E00088420DD044490098884209D00520FFF74F
:1037F00084F908F087FB012802D108F0D1FB009082
:1038000000203E4908603C49491E0098884204D186
:103810004FF47E20394908605EE0394900988842BB
:1038200007D14FF4FC203549086001203549087064
:1038300052E03349491C0098884206D0009820F491
:1038400070402D49491E884207D14FF47E202B49F4
:10385000086001202B4908703EE029494C39009846
:10386000884207D14FF4FF10244908600120254900
:10387000087031E0224943390098884206D1224835
:103880001E49086001201F49087025E0009820F0BB
:10389000FF001849884205D0009820F4704016496E
:1038A000884204D14FF4FF101449086014E00098D6
:1038B00020F0FF001549884206D0009820F470409F
:1038C0000D49491C884203D10F480C49086003E0A8
:1038D0004FF4FF10094908600D490098884202D151
:1038E000094806490860002008F000FC08BD0000F7
:1038F0000008014000461F001530EF00F8030020CB
:103900008D25BF00FC03002000E03F0000471F00A2
:1039100017405E002DE9F043CBB00646884691463D
:103920001F46529C4FF496716846FCF7A1FC17B1F4
:103930000CB1FA2C03DD00204BB0BDE8F083002071
:103940003049C8730846FCF7B0FC102801D90020A4
:10395000F2E706B9012668208DF8000003208DF8F3
:1039600001008DF802808DF80390F0B28DF805000B
:10397000300A8DF8040000202249C8730846FCF77D
:1039800094FCC0B28DF806001E48FCF78EFC85B290
:103990002A461C490DF10700FCF751FCE1B205F184
:1039A00008000DF80010210AE81D0DF80010811C18
:1039B0006A46881822463946FCF741FC05F10900A1
:1039C000011968460DF011FF05F1090121440DF8B8
:1039D0000100482105F10A0020440DF80010701C78
:1039E00086B205F10B00204482B26946002001F046
:1039F000D9FC054A08214FF4FA7004F00BFA0120B3
:103A00009AE70000F07500200000002008B5684625
:103A100000F0A1FA0120ADF8000000208DF80300AD
:103A20006946024800F004F808BD000000080140A3
:103A30002DE9F04102460025002600200023002445
:103A4000002791F803C00CF00F0591F803C00CF0AB
:103A5000100CBCF1000F03D091F802C04CEA050530
:103A600091F800C0BCF1000F31D0146800202BE0A9
:103A70004FF0010C0CFA00F3B1F800C00CEA030699
:103A80009E4220D183004FF00F0C0CFA03F7BC4389
:103A900005FA03FC4CEA040491F803C0BCF1280FBA
:103AA00006D14FF0010C0CFA00FCC2F814C00AE079
:103AB00091F803C0BCF1480F05D14FF0010C0CFA8E
:103AC00000FCC2F810C0401C0828D1D31460B1F823
:103AD00000C0BCF1FF0F34DD546800202EE000F17F
:103AE000080C4FF0010808FA0CF3B1F800C00CEA1A
:103AF00003069E4221D183004FF00F0C0CFA03F70E
:103B0000BC4305FA03FC4CEA040491F803C0BCF181
:103B1000280F05D100F1080C08FA0CF8C2F814803F
:103B200091F803C0BCF1480F07D100F1080C4FF029
:103B3000010808FA0CF8C2F81080401C0828CED3FF
:103B40005460BDE8F0810000F0B50446B4F1004FC8
:103B500072D90023002224F00045EB0905F07F050F
:103B60002A0905F00F05052B03D0970005FA07F683
:103B700003E05708BF0005FA07F6062B15D2DFE869
:103B800003F00305080B0E11EA480FE0E948001D99
:103B90000CE0E848083009E0E6480C3006E0E5486B
:103BA000103003E0E348143000E000BF00BF5AB912
:103BB000052B04D1076827F0030707604AE0076870
:103BC00027F00F07076045E0012A0BD1052B04D130
:103BD000076827F00C0707603CE0076827F0F0074C
:103BE000076037E0022A0BD1052B04D1076827F0C4
:103BF000300707602EE0076827F47067076029E048
:103C0000032A0BD1052B04D1076827F0C0070760F2
:103C100020E0076827F4704707601BE0042A04D1FE
:103C2000076827F47027076014E0052A05D10768A4
:103C300027F4700707600DE012E0062A04D1076838
:103C400027F07067076005E0072A03D1076827F0AF
:103C500070470760012902D107683743076067E1B1
:103C6000B4F5406F77D020DC402C75D00CDC042CF0
:103C70003FD004DC012C4ED0022C6ED138E0102C49
:103C800059D0202CF9D169E0B4F5007F76D005DC5D
:103C9000802C77D0B4F5807FEFD197E0B4F5407FEA
:103CA0006ED0B4F5006FE8D1C0E0B4F1807F68D089
:103CB00011DCB4F5803F1ED006DCB4F5804F71D026
:103CC000B4F5004FD9D115E0B4F5003F14D0B4F5E8
:103CD000802FD2D111E0B4F1007F74D0B4F1806FA5
:103CE00072D0B4F1884F70D0B4F1904FC5D10DE1CE
:103CF00000BF00BF00BF00BF00BF8E482038406833
:103D0000A0438C4A203A5060012903D110464068F4
:103D1000204350600BE1874820384068864A1040B5
:103D2000844A203A5060012904D11046406840F08E
:103D300001005060FBE07F482038406820F03000F0
:103D40007C4A203A5060012904D11046406840F076
:103D500010005060EBE079E025E0E7E0754820389E
:103D6000406820F03000734A203A5060012904D1A5
:103D70001046406840F020005060D8E036E001E096
:103D800044E083E06B482038406820F0C000694A76
:103D9000203A5060012904D11046406840F080006C
:103DA0005060C4E062E063482038406820F0C00002
:103DB000604A203A5060012904D11046406840F022
:103DC00040005060B3E071E080E08FE05948203857
:103DD000406820F44070574A203A5060012904D1CD
:103DE0001046406840F480705060A0E05148203890
:103DF000406820F440704F4A203A5060012904D1B5
:103E00001046406840F40070506090E04948203807
:103E1000406820F44070474A203A5060012904D19C
:103E20001046406840F44070506080E041482038BF
:103E3000406820F440603F4A203A5060012904D194
:103E40001046406840F40060506070E03948203807
:103E5000406820F44060374A203A5060012904D17C
:103E60001046406840F44060506060E031482038BF
:103E7000406820F4C0402F4A203A5060012904D104
:103E80001046406840F48040506050E02948203897
:103E9000406820F0E060274A203A5060012904D1B0
:103EA0001046406840F08070506040E02148203863
:103EB000406820F0E0601F4A203A5060012904D198
:103EC0001046406840F00070506030E019482038DB
:103ED000406820F0E060174A203A5060012904D180
:103EE0001046406840F08060506020E01148203863
:103EF000C06920F040600F4A203AD061012904D106
:103F00001046C06940F08060D06110E00948203858
:103F1000C06920F04060074A203AD061012904D1ED
:103F20001046C06940F00060D06100E000BF00BFF3
:103F3000F0BD000020000140FEFFFF7F0246002090
:103F400093680B400BB1012000E0002070474161F5
:103F50007047016170474FF6FF7101800221817047
:103F60000421C170704700000148006870470000DC
:103F70000C04002010B5104910480068FCF733FA13
:103F80000446FCF717FB0E4908610E490E4800680D
:103F9000FCF729FA0446FCF70DFB094988810B4917
:103FA0000B480068FCF71FFA0446FCF703FB81B2DC
:103FB0000348C18110BD000000007A44E8010020E0
:103FC000943F00200000C842E00100200000204192
:103FD000DC01002010B5FEF7ABFB06F0D9FF07F0BF
:103FE0003FF906F08DFF06F065FE06F069FF06F06A
:103FF000D9FD07F0FBF807F0A1F807F059F807F032
:104000000FF806F0DBFE10BD70B50024002517E0A8
:104010006006040E01200C4908600A200CF072FFB3
:1040200000200A49C1F8A0010A200CF06BFF0648E5
:1040300088380068012801D144F00104681CC5B229
:10404000082DE5DB204670BDA08121420080214281
:1040500010B50446204600F001F810BD70B50546C5
:104060002E4600241AE080202041304018B1012063
:104070000C49086002E000200A4908600120094953
:10408000091D08600A200CF03DFF00200649C1F818
:10409000A0010A200CF036FF601CC4B2082CE2DB41
:1040A00070BD00009C8121420080214270B5044611
:1040B00044F080052846FFF7D1FF70BD10B5002001
:1040C00006490860EA20FFF7C9FFDC20FFF7C6FFBA
:1040D00001200349C1F8A40110BD0000A4812142C0
:1040E0000080214210B5002006490860EA20FFF751
:1040F000B5FFE520FFF7B2FF01200349C1F8A40195
:1041000010BD0000A4812142008021427047704709
:1041100070477047704770477047704770477047E7
:1041200070477047704770477047704770477047D7
:1041300070477047704770477047704770477047C7
:1041400070477047704770477047704770477047B7
:104150007047000010B50446207804281AD00528BE
:1041600004D006281DD007282BD122E0FDF79EF9A8
:1041700078B101201449887000211448FEF78EFFA1
:10418000134A0821322003F045FE962164200EF0E8
:1041900021F917E001200C498870002001F02EFF62
:1041A00010E0012008498870FCF766FEFCF780FFEC
:1041B00008E001200449887006490748FEF76EFFB1
:1041C00000E000BF00BF10BD100400203405002037
:1041D0000000002058040020B006002010B504465E
:1041E0002078022808D10020054988700549086810
:1041F0000021FEF753FF00E000BF00BF10BD00002C
:10420000100400200C05002010B504462078022878
:1042100008D1002005498870054908680021FEF78B
:104220003DFF00E000BF00BF10BD000010040020F3
:10423000200500200178012905D0032902D0042996
:1042400009D104E000BF0021044A917004E000217C
:10425000024A917000E000BF00BF704710040020C8
:1042600010B50446207804281ED006DC01280BD0A7
:1042700002280DD003282DD111E00F2818D01028C6
:104280001CD0112826D11FE000201449887022E09C
:10429000FEF7EEFE00211248FEF700FF1BE00021B2
:1042A0001048FEF7FBFE16E0002001F0A7FE12E02A
:1042B00001200D49087601F095FD0CE002200A4925
:1042C000087601F08FFD06E003200749087601F02B
:1042D00089FD00E000BF00BF10BD000010040020F9
:1042E0005C05002034050020F075002010B5044660
:1042F0002078132845D2DFE800F0440A0E444444F5
:1043000013161C2229303744444444443E00002004
:104310001D49887036E000211C48FEF7BFFE31E0E1
:10432000FEF746FA2EE001201949487601F05AFDC1
:1043300028E000201649487601F054FD22E044F2BE
:1043400030201349488301F04DFD1BE044F2312039
:104350000F49488301F046FD14E044F230300C4927
:10436000488301F03FFD0DE044F2313008494883B5
:1043700001F038FD06E00F2141F2057006F0AAFBBE
:1043800000E000BF00BF10BD100400204805002061
:10439000F075002010B504462078022805D10449A4
:1043A00008680021FEF77AFE00E000BF00BF10BDE4
:1043B0005C05002010B50446207806281AD004DCDD
:1043C000042807D0052839D10CE007281AD00F2877
:1043D00034D11FE002201B49887000211A48FEF7E3
:1043E0005DFE2CE002201749887000211748FEF777
:1043F00055FE24E002201349887000211448FEF77E
:104400004DFE1CE002200F49887000211148FEF784
:1044100045FE14E0FDF74AF878B10120094988709B
:1044200000210D48FEF73AFE0C4A0821322003F025
:10443000F1FC962164200DF0CDFF00E000BF00BF2D
:1044400010BD00001004002098050020AC050020DD
:10445000C0050020D4050020340500200000002005
:1044600010B5044620780A281DD006DC022809D0A1
:1044700008280CD0092828D10FE00B2819D00E28C5
:1044800023D11CE000211248FEF708FE1EE00321A4
:1044900041F68D0005F062FB18E0062141F68D0023
:1044A00005F05CFB12E0092141F68D0005F056FB9A
:1044B0000CE00C2141F68D0005F050FB06E00121D7
:1044C00041F68D0006F006FB00E000BF00BF10BD06
:1044D0008405002010B5044620780A281DD006DC8B
:1044E000022809D008280CD0092828D10FE00B2871
:1044F00019D00E2823D11CE000211248FEF7CEFD72
:104500001EE0052141F60D1005F028FB18E00A21F8
:1045100041F60D1005F022FB12E0142141F60D10BA
:1045200005F01CFB0CE01E2141F60D1005F016FBFA
:1045300006E0012141F60D1006F0CCFA00E000BFC4
:1045400000BF10BD8405002010B5044620780A285D
:104550001DD006DC022809D008280CD0092828D153
:104560000FE00B2819D00E2823D11CE0002112489F
:10457000FEF794FD1EE01E2141F68D1005F0EEFAC7
:1045800018E03C2141F68D1005F0E8FA12E05A21BE
:1045900041F68D1005F0E2FA0CE0782141F68D101D
:1045A00005F0DCFA06E0012141F68D1006F092FAE2
:1045B00000E000BF00BF10BD8405002010B5044618
:1045C000207805280AD1FCF771FF30B10120054998
:1045D000887000210448FEF761FD00E000BF00BFC5
:1045E00010BD0000100400203405002010B5044662
:1045F00020780A281DD006DC022809D008280CD013
:10460000092828D10FE00B2819D00E2823D11CE04F
:1046100000211248FEF742FD1EE0002141F60D2068
:1046200005F09CFA18E0082141F60D2005F096FAF5
:1046300012E00D2141F60D2005F090FA0CE0152155
:1046400041F60D2005F08AFA06E0012141F60D2021
:1046500006F040FA00E000BF00BF10BD8405002056
:1046600010B504462078022805D1044908680021C5
:10467000FEF714FD00E000BF00BF10BD5C05002088
:1046800010B504462078022805D1044908680021A5
:10469000FEF704FD00E000BF00BF10BD5C05002078
:1046A00010B504462078022805D104490868002185
:1046B000FEF7F4FC00E000BF00BF10BD5C05002069
:1046C00010B504462078022805D104490868002165
:1046D000FEF7E4FC00E000BF00BF10BD5C05002059
:1046E00010B504462078052813D1FCF7DFFE78B119
:1046F00001200949887000210848FEF7CFFC084ACC
:104700000821322003F086FB962164200DF062FE22
:1047100000E000BF00BF10BD1004002034050020E1
:10472000000000200178012903D10021024A917084
:1047300000E000BF00BF70471004002010B5044621
:104740002078012804D0022806D004280CD107E0E4
:1047500000200749887008E0012001F04FFC04E0C8
:10476000022001F04BFC00E000BF00BF10BD0000C4
:104770001004002010B504462078012802D0022839
:1047800008D103E000200549887004E0012001F011
:1047900035FC00E000BF00BF10BD00001004002089
:1047A00010B504462078042809D005280CD1012032
:1047B0000749887007490848FEF770FC05E005497D
:1047C0000648FEF76BFC00E000BF00BF10BD000014
:1047D000100400208004002034050020A8040020DC
:1047E00010B504462078062818D2DFE800F0170339
:1047F000070B0F1300200B49887010E00120FCF715
:1048000055FD0CE00120FCF7D7FC08E00A20FCF77E
:104810004DFD04E00A20FCF7CFFC00E000BF00BF24
:1048200010BD00001004002010B5044620780128B7
:1048300004D0022806D003280CD107E00020074945
:10484000887008E00120FCF731FD04E00A20FCF745
:104850002DFD00E000BF00BF10BD000010040020CF
:104860000178012902D0022908D103E00021054A7C
:10487000917004E00021034A917000E000BF00BF86
:1048800070470000100400200178012902D002299D
:1048900008D103E00021054A917004E00021034A99
:1048A000917000E000BF00BF7047000010040020BE
:1048B0000178012902D0022908D103E00021054A2C
:1048C000917004E00021034A917000E000BF00BF36
:1048D00070470000100400200178012902D002294D
:1048E00008D103E00021054A917004E00021034A49
:1048F000917000E000BF00BF70470000100400206E
:104900000178012902D0022908D103E00021054ADB
:10491000917004E00021034A917000E000BF00BFE5
:1049200070470000100400207047000010B50446D6
:104930002078022805D1044908680021FEF7AEFB63
:1049400000E000BF00BF10BDA804002010B5044661
:104950002078022805D1044908680021FEF79EFB53
:1049600000E000BF00BF10BDBC04002010B504462D
:104970002078022808D10020054988700549086878
:104980000021FEF78BFB00E000BF00BF10BD000060
:1049900010040020D004002010B50446207802281E
:1049A00008D1002005498870054908680021FEF7F4
:1049B00075FB00E000BF00BF10BD00001004002028
:1049C000E404002010B504462078022808D1002015
:1049D00005498870054908680021FEF75FFB00E083
:1049E00000BF00BF10BD000010040020F80400202C
:1049F00000BFFEE770B505460C4645F2555000F085
:104A000013F8284600F01EF8204600F021F800F0C8
:104A100011F800F001F870BD4CF6CC400149086077
:104A200070470000003000400149086070470000F6
:104A3000003000404AF6AA20014908607047000093
:104A400000300040014948607047000000300040DD
:104A500001498860704700000030004008B5C82058
:104A60000CF0DEF9C8200CF0DBF9C8200CF0D8F906
:104A7000C8200CF0D5F9C8200CF0D2F9C8200CF0F1
:104A8000CFF9C8200CF0CCF9C8200CF0C9F9C82027
:104A90000CF0C6F9C8200CF0C3F964200CF0F8F94A
:104AA0000121082005F074FD4FF46070ADF800009E
:104AB00002208DF8020010208DF803006946594845
:104AC000FEF7B6FF4020ADF8000002208DF802008E
:104AD00004208DF8030069465248FEF7A9FF4021E3
:104AE0005048FFF736FA0A200CF0D2F901204E495F
:104AF000086002200CF006FA02200CF003FA0020F5
:104B00004A49C1F8A00102200CF0FCF900204649F6
:104B100008390860FFF7E6FA00204449C1F8A4010B
:104B2000EA20FFF79BFA5A20FFF798FA01203E4946
:104B3000086000203D49C1F8A401FFF7B7FA0F2033
:104B4000FFF78CFA0420FFF789FA01203649086044
:104B500000203649C1F8A4010120FFF7A7FA102070
:104B6000FFF77CFA0320FFF779FA01202E4908604D
:104B700000202E49C1F8A4011320FFF797FA0F2057
:104B8000FFF76CFAFF20FFF769FA01202649086059
:104B900000202649C1F8A4014020FFF787FA002031
:104BA000FFF75CFA0020FFF759FA01201E49086060
:104BB000FFF784FA0221702006F0FAFA1C49086017
:104BC0000221712006F0F4FA1A49086002217220CD
:104BD00006F0EEFA184908600221732006F0E8FAA0
:104BE000164908600221742006F0E2FA14490860B0
:104BF0000221752006F0DCFA1249086002217620B5
:104C000006F0D6FA104908600221772006F0D0FAA3
:104C10000E49086000F07CF807F0C4FD07F05AFE6A
:104C200008BD0000000C0140A48121420080214207
:104C30008C010020900100209401002098010020A8
:104C40009C010020A0010020A4010020A801002058
:104C500010B5002453E02C4800EB0410806800B924
:104C60004BE02A4803F032F9274901EB04110860B0
:104C7000254800EB04100068234901EB0411496842
:104C8000884212D3204800EB041000681E4901EB53
:104C900004114968401A1C4901EB041189688842D3
:104CA00001D3012015E0002013E0174800EB0410A9
:104CB0000068154901EB04114968C1F1FF3108444E
:104CC000114901EB04118968884201D3012000E0F9
:104CD000002088B10C4800EB041000680A4901EB81
:104CE00004114860084800EB0410C06820B1064970
:104CF00001EB0411C868804700BF601CC4B2032CDC
:104D0000A9DB012010BD000050030020000000209E
:104D100070B50221702006F04BFA4B490860022161
:104D2000712006F045FA494908600221722006F018
:104D30003FFA474908600221732006F039FA4549D5
:104D400008600221742006F033FA4349086002210A
:104D5000752006F02DFA414908600221762006F000
:104D600027FA3F4908600221772006F021FA3D49E1
:104D7000086002216F2006F01BFA3B4908600025FD
:104D8000314800684FF6FF7108443049096808440B
:104D90002F49096808442F49096808442E490968C1
:104DA00008442E49096808442D49096808442D49DA
:104DB00009680844C543A8B22C4908602CA00AF031
:104DC000B9FD214801682FA00AF0B4FD1F48016811
:104DD00033A00AF0AFFD1E48016838A00AF0AAFD12
:104DE0001C4801683CA00AF0A5FD1B48016841A0D1
:104DF0000AF0A0FD1948016845A00AF09BFD18487B
:104E000001684AA00AF096FD164801684EA00AF013
:104E100091FD1548016853A00AF08CFD1348016804
:104E200057A00AF087FD114800680F4909688842B9
:104E300004D1012459A00AF07DFD03E000245CA008
:104E40000AF078FD204670BD8C0100209001002002
:104E500094010020980100209C010020A001002066
:104E6000A4010020A8010020AC010020B001002016
:104E7000D7AABBBBCFB5CAFDBCC4B4E6C6F70D0A02
:104E8000000000005531365F524D534941435F5297
:104E9000656744617461203D2025780A2000000088
:104EA0005531365F524D534942435F526567446105
:104EB0007461203D2025780A200000005531365FBE
:104EC000524D5355435F52656744617461203D20E4
:104ED00025780A20000000005531365F506F776555
:104EE000725041435F52656744617461203D2025E3
:104EF000780A20005531365F506F77657250424313
:104F00005F52656744617461203D2025780A200066
:104F10005531365F506F77657253435F5265674412
:104F2000617461203D2025780A2000005531365FEC
:104F3000456E6572677941435F526567446174618C
:104F4000203D2025780A20005531365F456E657278
:104F5000677942435F52656744617461203D202553
:104F6000780A20005531365F436865636B53554DB1
:104F70005F52656744617461203D2025780A2000F6
:104F80005531365F436865636B53554D5F446174BB
:104F900061203D2025780A2000000000CFB5CAFD21
:104FA000BCC4B4E6C6F7D0A3D1E96F6B0D0A00000C
:104FB000CFB5CAFDBCC4B4E6C6F7D0A3D1E96661DB
:104FC000696C0D0A0000000010B5084840680849E7
:104FD000086008460068074908600449086880F3CB
:104FE000088800BF03480068804710BD0090010892
:104FF0002C000020280000200020024981F8C80071
:1050000070470000CE7A0020094991F8C82091F835
:10501000C810491C064B83F8C8101946885491F8EB
:10502000C810C82903D300211A4682F8C810704757
:10503000CE7A002010B504464FF6FF7101EA144005
:1050400000F01AF8A0B200F017F810BD10B508482B
:1050500090F8C81008F0DAF8FFF7CEFF054A0821EB
:10506000142002F0D7FE024890F8C80010BD0000DE
:10507000CE7A00200000002010B50446200AFFF779
:10508000C3FFE0B2FFF7C0FF10BD000008B501216B
:10509000084605F07DFA0121802005F079FA01210A
:1050A000042005F075FA0121102005F071FA0121A4
:1050B000202005F06DFA0121082005F069FA012190
:1050C0004806FEF741FD4020ADF8000002208DF8B3
:1050D000020010208DF8030069464D48FEF7A8FC39
:1050E00040214B48FEF733FF8020ADF8000002203E
:1050F0008DF8020048208DF8030069464448FEF709
:1051000097FC1020ADF8000002208DF8020010205E
:105110008DF8030069463F48FEF78AFC10213D48A0
:10512000FEF715FF0820ADF8000002208DF8020000
:1051300010208DF8030069463748FEF779FC0821F6
:105140003548FEF704FF4FF40040ADF800000220A0
:105150008DF8020010208DF8030069462F48FEF7F5
:1051600067FC4FF400412D48FEF7F1FE1020ADF82A
:10517000000002208DF8020010208DF8030069461F
:105180002548FEF755FC4FF40050ADF80000022012
:105190008DF8020010208DF8030069462048FEF7C4
:1051A00047FC0220ADF800008DF8020010208DF8B9
:1051B000030069461848FEF73BFC4FF48050ADF8F9
:1051C000000002208DF8020010208DF803006946CF
:1051D0001248FEF72DFC4FF40060ADF800000220ED
:1051E0008DF8020010208DF8030069460B48FEF789
:1051F0001FFC4FF48070ADF8000002208DF8020013
:1052000010208DF8030069460448FEF711FC08BD24
:10521000001C014000140140000C01400008014046
:105220000010014000BFFEE730B505460C4622469F
:105230000021284600F001F830BD2DE9F041054677
:105240000B4694460027002402E03F021F43641CE3
:10525000042CFAD3604605F00306294646B13446CD
:1052600003E001F8013B401E641C08B1042CF8D394
:105270000A4601E080C2001F0428FBD2114602E06A
:1052800001F8013B401E0028FAD1BDE8F081000082
:1052900070B504460D46164607F060F900202C490B
:1052A000087015E02B4A0821642002F0B3FD2A485B
:1052B000007BC0F3001030B12748007B20F01000C5
:1052C0002549087308E022480078401C20490870EE
:1052D0001F4800781428E5D300BF1D480078142823
:1052E00004D31EA00AF026FB002070BD32462946DA
:1052F000204600F0FDF800201549087013E0154A1B
:105300000821642002F086FD13480D30005D01285D
:1053100004D1002110480D30015508E00C480078F8
:10532000401C0B4908700A4800783228E7D300BFB8
:1053300007480078322804D311A00AF0FBFA0020B5
:10534000D3E701210448401C01550120CDE70000AE
:10535000EE02002000000020DE5A0020726573700B
:105360006F6E6420636D643A4154434D445F4E4513
:10537000544F50454E2074696D656F757400000080
:10538000726573706F6E6420636D643A4154434D6F
:10539000445F4349504F50454E2074696D656F75A9
:1053A000740000002DE9F04391B004460E46154606
:1053B000002700BF3C2101A8FAF75AFF234632A27A
:1053C0003C2101A800950AF0C5FA804608F10100C9
:1053D00038B9414631A00AF0ADFA002011B0BDE85D
:1053E000F08310A800231A4619460090334801F0B4
:1053F000D1FB334890F86600012833DD0A2C00DC2D
:105400000EB90020EAE7E9B2204606F05DFF01A8E8
:10541000FAF74BFF1FFA80F9494601A807F088FE0A
:1054200010AA0821322002F0F5FC0EE0254A0821DE
:10543000322002F0EFFC2448005D012803D1002156
:105440002148015503E0781CC7B2642FEED300BF9A
:10545000642F07D12046FBF7DBFF1CA00AF06AFA95
:105460000020BBE72946304607F062FE10AA002163
:10547000124801F0B7FC134A08214FF47A7002F089
:10548000C9FC0120AAE7000041542B434950534571
:105490004E443D25642C25640D0A0000736E707225
:1054A000696E7466206572726F722C207468652054
:1054B0006C656E2069732025640000000452002092
:1054C0005602002000000020ED5A00207265737023
:1054D0006F6E6420636D643A4154434D445F53459D
:1054E0004E4441434B2074696D656F757400000034
:1054F0002DE9F04391B005460E4617460EB10A2D30
:1055000003DD002011B0BDE8F0832B4611A23C2141
:1055100002A8CDE900670AF01DFA0446601C28B90C
:10552000214614A00AF006FA0020EBE702A8FAF7D9
:10553000BCFE1FFA80F8414602A807F083FE8146B0
:1055400002A8FAF7B2FE814501D10120DAE7002076
:10555000D8E7000041542B4349504F50454E3D255C
:10556000642C22544350222C222573222C25640DB6
:105570000A000000736E7072696E74662065727244
:105580006F722C20746865206C656E20697320250D
:10559000640000007CB505460020FBF775FD04465D
:1055A00000200190552000900DB900207CBD287886
:1055B00008B90020FAE706F0DDFEA34A08214FF4FF
:1055C000FA6002F027FC06F0A1FF9F4A08214FF481
:1055D0007A7002F01FFC06F0F1FE00209B49086083
:1055E00011E0994A0821642002F014FC984880795F
:1055F000012803D100209649887108E0934800688B
:10560000401C92490860914800681428E9D300BF03
:105610008E480068142804D18EA00AF08BF900206F
:10562000C4E7284606F0DEFE00208849086011E045
:10563000854A0821322002F0EDFB8548C079012817
:1056400003D100208249C87108E080480068401CEE
:105650007E4908607D4800682828E9D300BF7B4860
:105660000068282804D17BA00AF064F900209DE797
:1056700095F8640038B305F1640006F0F7FE0020E9
:105680007249086011E0704A0821322002F0C2FB22
:105690006F48007A012803D100206D49087208E0A4
:1056A0006A480068401C6949086068480068282802
:1056B000E9D300BF65480068282804D165A00AF036
:1056C00039F9002072E706F063FE00205F490860A8
:1056D00011E05D4A0821322002F09CFB5C48407AD0
:1056E000012803D100205A49487208E05748006851
:1056F000401C56490860554800682828E9D300BF77
:1057000052480068282804D15AA00AF013F9002052
:105710004CE72068B0F5483F04D95EA00AF00AF9CA
:10572000002043E7484802F0D1FB5F490860084683
:1057300000685E49086077E020680199884201D2DC
:10574000002033E72068019988420FD1042301AA81
:10575000012107200BF05AFE01203D49C8720123A8
:105760006A46002107200BF051FE61E02068019994
:10577000401AB0F57A7F04D94FF47A7006F016FF1C
:1057800004E02168019A881A06F010FF2E4802F002
:105790009DFB454908602E48C07A012807D1206842
:1057A0000199884202D101202949C87240E03E484F
:1057B00000683E490968401A3D49884204D93DA025
:1057C0000AF0B8F80020F1E60020204908601DE04A
:1057D0001D4A0821322002F01DFB1D48807A012855
:1057E0000FD100201A49887204F1080263680199F8
:1057F000491D07200BF00AFE6068019908440190DA
:1058000008E012480068401C104908600F48006812
:105810002828DDD300BF0D480068282804D325A020
:105820000AF088F80020C1E60948C07A002883D031
:1058300000BF06F06BFE044A08214FF47A7002F0B4
:10584000E9FA0120B2E6000000000020E00200209A
:10585000DE5A0020726573706F6E6420636D643A67
:1058600048545450494E49542074696D656F75749D
:1058700000000000726573706F6E6420636D643A9F
:1058800048545450204745542074696D656F7574B1
:105890000000000068747470206461746120746F8B
:1058A0006F206C656E000000E4020020E80200201A
:1058B000C0D40100726573706F6E6420636D643ACA
:1058C0004854545020524541442074696D656F75A9
:1058D0007400000010B506F04DFC002073490870FC
:1058E00015E0734A0821642002F094FA7148007BA5
:1058F00000F0010030B16F48007B20F001006D49DD
:10590000087308E069480078401C684908706748D7
:1059100000781428E5D300BF64480078142804D127
:1059200065A00AF007F8002010BD06F011FD002068
:105930005E49087015E05E4A0821642002F06AFAA8
:105940005C48007BC0F3400030B15A48007B20F037
:1059500002005849087308E054480078401C534935
:105960000870524800781428E5D300BF4F480078EB
:10597000142804D158A009F0DDFF0020D4E706F078
:10598000DFFB00204949087015E0494A08216420DE
:1059900002F040FA4748007BC0F3800030B1454830
:1059A000007B20F004004349087308E03F4800787A
:1059B000401C3E4908703D4800781428E5D300BFDC
:1059C0003A480078142804D14BA009F0B3FF002016
:1059D000AAE7524890F86600012802D106F020FCA0
:1059E00001E006F0CFFD324A08214FF4FA7002F0D0
:1059F00011FA00202D49087015E02D4A0821642075
:105A000002F008FA2B48007BC0F3C00030B12948EF
:105A1000007B20F008002749087308E0234800783D
:105A2000401C22490870214800781428E5D300BFA3
:105A30001E480078142804D139A009F07BFF00200B
:105A400072E7364890F86600012829DD06F0EEFD81
:105A500000201649087015E0154A0821642002F05C
:105A6000D9F91448007BC0F3401030B11148007BD5
:105A700020F020000F49087308E00C480078401C13
:105A80000A490870094800781428E5D300BF074880
:105A90000078142804D122A009F04CFF002043E72D
:105AA00001200449087000BF3EE70000EC0200201E
:105AB00000000020DE5A0020726573706F6E642053
:105AC000636D643A4154434D445F43494D492074EA
:105AD000696D656F75740000726573706F6E642018
