:020000040800F2
:10000000C07B0020890100084D6B0008AD4B000843
:100010008D540008A9270008B3CC00080000000098
:100020000000000000000000000000009B0100082C
:10003000A12B000800000000970B000881C10008F8
:10004000A3010008A3010008A3010008A301000800
:10005000A3010008A3010008A3010008A3010008F0
:10006000A3010008A3010008A3010008A3010008E0
:10007000A3010008A3010008A3010008A3010008D0
:10008000A3010008A3010008A3010008A3010008C0
:10009000A3010008A3010008A3010008A3010008B0
:1000A000A3010008A3010008A3010008A3010008A0
:1000B000A30100080DC4000881C40008A3010008C2
:1000C000A3010008A3010008A3010008A301000880
:1000D000A3010008ADC9000835CA0008A301000843
:1000E000A3010008A3010008A3010008000000000C
:1000F0000000000000000000000000000000000000
:1001000000000000A3010008A30100080000000097
:1001100000000000000000000000000000000000DF
:10012000A3010008A3010008A3010008A30100081F
:1001300000000000000000000000000000000000BF
:10014000000000000000000000000000A301000803
:100150000000000000000000A3010008A301000847
:10016000A30100080000000000000000A301000837
:10017000DFF810D000F056FC0048004739100108A5
:10018000AFF30080C07B0020064880470648004748
:10019000FEE7FEE7FEE7FEE7FEE7FEE7FEE7FEE737
:1001A000FEE7FEE7BDC100087101000872B67047A6
:1001B00062B67047EFF3108072B6704780F3108814
:1001C000704730BF704720BF7047B0FA80F070476B
:1001D00090FAA0F0B0FA80F0704790FAA0F0704763
:1001E0002DE9F05F0546002092469B46884606466C
:1001F000814640241BE0284641464746224600F0FF
:1002000022FB53465A46C01A914110D31146184654
:10021000224600F009FB2D1A67EB01084F462246E3
:100220000120002100F000FB17EB00094E41201EC9
:10023000A4F10104DFDC484631462A464346BDE8C6
:10024000F09F40EA01039B0703D009E008C9121F91
:1002500008C0042AFAD203E011F8013B00F8013B80
:10026000521EF9D27047D2B201E000F8012B491EAC
:10027000FBD270470022F6E710B513460A46044643
:100280001946FFF7F0FF204610BD30B505462A4657
:100290000B4612F8010B13F8014B08B1A042F8D03D
:1002A0001CB1002802D06D1CF1E7284630BD421C6D
:1002B00010F8011B0029FBD1801A704730B50546A4
:1002C0000020034600E05B1C934205D2EC5CC85C56
:1002D000201A01D1002CF6D130BD000070B50F4DB1
:1002E00000B92868002412E00A4602E09E4203D0CA
:1002F000521C1378002BF9D1DAB2224305D02BB16E
:1003000024B1002100F8011B04E00446401C0678DB
:10031000002EE9D12860204670BD0000340700207F
:1003200070B506460EF0E6FD046805460A22002177
:10033000304600F0AAFA2C6070BDF0B480EA0102E9
:10034000D40F4200B2EB410F02D2024608461146DA
:100350004A0042D0C30DDDB2C1F3C752AD1A202D01
:1003600035DAC1F3160141F4000204B15242C5F17D
:10037000200602FA06F12A411044B3EBD05F23D0E5
:10038000C4B1012DA0EBC35009DCF0BC4FF000421A
:1003900002EAC352DBB200F5000000F0B7BA400039
:1003A00000F1807000EBC350A0F1807040EAD17082
:1003B000490009E0490841EAC071A0EBC35000F5CB
:1003C0000000400800EBC350F0BC00F096BA614258
:1003D000012202EB4101001BF6E7F0BC704781F0FF
:1003E0000041AAE780F00040A7E780EA010210B5CB
:1003F00002F00043400022D04A001FD0010E01EB62
:100400001261C0F35600C2F3560240F4000042F4F9
:100410000002A0FB022000047F39140400D0401C1D
:1004200050EA124001D44000491EC2B20C0604EB4F
:10043000D010401C4008802A02D003E0002010BDEC
:1004400020F00100002900DA0020184310BD30B46C
:1004500080EA010202F0004530F0004221F0004045
:1004600013D090B1C30DD40DC2F31601C0F3160022
:10047000E41A41F4000140F400027D34914201D3BA
:10048000641C00E04900002C02DA30BC00207047F8
:100490004FF400000023914201D3891A034340081E
:1004A0004FEA4101F7D151B1914202D14FF00041E1
:1004B00005E002D24FF0010101E06FF0010103EB12
:1004C000C450284430BC00F018BA2DE9FE4F8046D5
:1004D00081EA0300C00F0C46009021F0004123F098
:1004E0000045B8EB0200A94105D24046214690469E
:1004F0001C460B46024623F00040104347D0270D10
:10050000C7F30A00C3F30A510290401A0190402831
:100510006BDAC3F3130040F4801B0098924620B1BD
:100520000023D2EB030A63EB0B0B01985946C0F191
:100530004002504600F078F906460D4650465946AE
:10054000019A00F090F910EB08006141002487EA5D
:10055000115284EAE7731A4340D0009A62B3019AB9
:10056000012A4FEA075215DC001B61EB02014FF034
:10057000004202EA0752CDE90042001C41F5801119
:1005800032462B4600F0FFF903B0BDE8F08F40463D
:100590002146F9E7001B61EB0201001C41F58013C5
:1005A00000185B412018A2F5001747EB030140EA51
:1005B000D570B6196D4111E06D084FEA360645EA6F
:1005C000C0754FEA0752001B61EB0201001C41F5A8
:1005D000801149084FEA30000019514132462B463C
:1005E00003B0BDE8F04F00F0BFB900980122400011
:1005F0000023D0EB020263EBE073009821464FEA40
:10060000E074B8EB000061EB0401E9E783F000431C
:100610005BE781F0004158E72DE9FE4F81EA0304D2
:1006200004F0004421F0004100944FF0000B23F04F
:10063000004350EA01045ED052EA03045BD0C3F3E6
:100640000A54C1F30A552C44A4F2F3340194A0FBDC
:100650000254C1F3130141F48011C3F3130343F4B3
:10066000801301FB024400FB034E840A970A44EA0C
:10067000815447EA8357A4FB076802958D0A05FB5E
:1006800007854FEA932C04FB0C542705029D4FEA83
:10069000065847EA1637B5EB08056EEB070C870ED0
:1006A000920E47EA811742EA8312A7FB0201B6EBDA
:1006B0000B0164EB00042B0D43EA0C335E1844EB92
:1006C0001C50DA465146E7FB0201C5F313044FEA1A
:1006D0000B3343EA14534FEA0432019C43EA060306
:1006E000A4F10C040294009CCDE900B400F04BF995
:1006F00003B0BDE8F08F00200146F9E79623002201
:10070000114600F003B90EB540F2334102910021C9
:10071000CDE900110A460B4600F035F903B000BDE3
:1007200020F00040C10DC0F3160040F400007F2906
:1007300001DA00207047962903DCC1F19601C84018
:100740007047963988407047C1F30A5210B5C1F31B
:10075000130140F2FF3341F480119A4201DA002084
:1007600010BD40F233439A42A2F2334203DC5242BC
:1007700000F069F810BD904010BD00F0004230F06C
:1007800000400AD0C10D01F56071C0F3160042EAC5
:100790000151C208400711437047002001467047CD
:1007A00030B5041E71F1000404DB4FF000444042F8
:1007B00064EB0101141E73F1000405DB1C464FF0CD
:1007C0000043524263EB04038B4208BF824230BDB8
:1007D00030B5041E71F1000404DB4FF000444042C8
:1007E00064EB0101141E73F1000405DB1C464FF09D
:1007F0000043524263EB0403994208BF904230BD6C
:10080000002801DBC0F10040002901DBC1F10041FB
:1008100081427047002801DBC0F10040002901DB64
:10082000C1F1004188427047202A04DB203A00FAD7
:1008300002F1002070479140C2F1200320FA03F337
:10084000194390407047202A04DB203A21FA02F035
:100850000021704721FA02F3D040C2F120029140FA
:10086000084319467047202A06DBCB17203A41FA85
:1008700002F043EAE07306E041FA02F3D040C2F12D
:10088000200291400843194670472DE9F0479146F0
:100890000F4680460446002614F8015B2DB100F097
:1008A000D3F80068405DC007F6D12B2D02D02D2D66
:1008B00018D0641E4A463946204600F0C9F827B1D0
:1008C0003968A14201D1C7F8008071054FF00204D8
:1008D0000BD54042002803DD0EF00CFB0460A0079E
:1008E000BDE8F08746F48066E4E70028F8DA0EF009
:1008F00001FB04606FF00040F2E70029A8BF7047D9
:10090000401C490008BF20F00100704710B4B0FA45
:1009100080FC00FA0CF050EA010404BF10BC7047E0
:1009200049B1CCF1200421FA04F411FA0CF118BFFA
:10093000012121430843A3EB0C01CB1D4FEA0061C9
:100940004FEA102042BF002010BC704700EBC3509C
:1009500010440029A4BF10BC7047401C490008BFC8
:1009600020F0010010BC704710B5141E73F1000494
:1009700008DA401C41F1000192185B411A4301D191
:1009800020F0010010BD2DE9F04D92469B4611B1BB
:10099000B1FA81F202E0B0FA80F220329046FFF71D
:1009A00043FF04460F4640EA0A0041EA0B01534662
:1009B0005A46084313D0114653EA010019D0C8F132
:1009C00040025046FFF73FFF05460E465046594647
:1009D0004246FFF729FF084305D0012004E02046E6
:1009E0003946BDE8F08D0020054346EAE0762C4309
:1009F00037430A986305E40AA0EB08000022FD0AC9
:100A000044EA47540A3002D500200146E9E70105CF
:100A100010196941DDE9084500196941BDE8F04D4B
:100A2000A2E70000064C074D06E0E06840F0010335
:100A300094E8070098471034AC42F6D3FFF79CFBCC
:100A40008C410108AC41010800487047AC3E0108E8
:100A50002DE9F05F82460078002715468B460AF1A3
:100A60000104B946302801D09DB113E014F8010B00
:100A70000127782803D0582801D045B10AE00DB1EC
:100A8000102D07D10027102514F8010B02E00825CE
:100A900000E00A250026B0460EE005FB080005FB35
:100AA00006F1012701EB10461FFA80F8B6F5803FEA
:100AB00000D3B94614F8010B294600F018F80028B5
:100AC000EBDABBF1000F05D00FB1641E00E0544615
:100AD000CBF80040B9F1000F06D00EF00BFA02215E
:100AE0000160C81EBDE8F09F48EA0640FAE73A28D0
:100AF00000D2303820F02002412A01D3A2F1370081
:100B0000884201D34FF0FF30704770B58C1810F851
:100B1000015B15F0070301D110F8013B2A1106D142
:100B200010F8012B03E010F8016B01F8016B5B1E5C
:100B3000F9D12B0705D40023521E0DD401F8013B37
:100B4000FAE710F8013BCB1A921C03E013F8015BA3
:100B500001F8015B521EF9D5A142D8D3002070BD27
:100B60001D484FF0FF010170002080F309881B48E9
:100B7000016881F308881A484FF08051016062B61D
:100B8000FEE717484FF080510160704714484FF05E
:100B900080510160704772B6EFF3098028B12038A8
:100BA00080E8F00F0F490968086000B50E488047DB
:100BB0005DF804EB0D480E490A78027009480D49AA
:100BC0000A680260106890E8F00F203080F309880E
:100BD0004EF0F40E62B6704722ED00E0A000002057
:100BE00004ED00E0680100205D810008E6000020BF
:100BF000E70000206C01002021B1826842F0010270
:100C0000826003E0826822F001028260704721B1B5
:100C1000826842F48072826003E0826822F480720B
:100C200082607047014600208A6802F004020AB11F
:100C3000012000E000207047014600208A6802F091
:100C400008020AB1012000E00020704730B50246DA
:100C50000020002350680F4C20400D790C6844EAB6
:100C600005242043506090680B4C2040D1E9025489
:100C70002C434D7944EA450420439060D06A20F427
:100C800070000C7C641EE4B2234340EA0350D0623F
:100C900030BD0000FFFEF0FFFDF7F1FDF0B50446AA
:100CA0000D4600200021092D11DDE068A5F10A069E
:100CB00006EB4607072606FA07F18843A5F10A0660
:100CC00006EB460603FA06F10843E0600CE02069F3
:100CD00005EB4507072606FA07F1884305EB4506AD
:100CE00003FA06F108432061072A0FDA606B561EEB
:100CF00006EB86071F2606FA07F18843561E06EB09
:100D0000860605FA06F10843606322E00D2A0FDA31
:100D1000206BD61F06EB86071F2606FA07F18843CD
:100D2000D61F06EB860605FA06F10843206310E09D
:100D3000E06AA2F10D0606EB86071F2606FA07F108
:100D40008843A2F10D0606EB860605FA06F1084374
:100D5000E062F0BD816841F008018160704721B117
:100D6000826842F4A002826003E0826822F4A0025A
:100D700082607047816841F0040181607047002102
:100D80000160017141718160C1600121017470478E
:100D90002DE9F04790B00746894690461E4614213B
:100DA0000BA8FFF767FA142106A8FFF763FA78216A
:100DB0007E48FFF75FFA7E48D0F80A007B49086159
:100DC0007C48007E012805D1022178486C3001F072
:100DD00039FF19E078480078012805D103217348CC
:100DE0006C3001F02FFF0FE0744890F87B020B2865
:100DF00005D103216D486C3001F024FF04E002218D
:100E00006A486C3001F01EFF6A48007E01280ED14E
:100E100000F0FEF905461DB9002010B0BDE8F087CE
:100E2000052205F10B0161481C300BF0F1F8634815
:100E3000D0F849000A21B0FBF1F05C49486139461D
:100E40005A48303001F0A6FF5A48007E012818D1D8
:100E50000CF073FA012828D1554890F839000106A2
:100E6000534890F83A0041EA0041514890F83B005D
:100E700041EA00204E4991F83C1008434B49086074
:100E800013E04B4890F839000106494890F83A00C1
:100E900041EA0041464890F83B0041EA00204449BD
:100EA00091F83C1008434149086049463F48623088
:100EB00001F0C8FE41463D48001D01F0C3FE3F4819
:100EC000D0F87702394988613C4890F84D1090F885
:100ED0004E2090F84F3090F85100CDE90232049145
:100EE0000190364890F852000090344890F8530032
:100EF000A0F1640332A214210BA80DF0E1FF044617
:100F0000601C28B9214636A00DF0CAFF002084E7F6
:100F10002A4890F8541090F8552090F8563090F8E0
:100F20005800CDE9023204910190244890F859000C
:100F30000090224890F85A00A0F1640320A21421E6
:100F400006A80DF0BDFF0446601C28B9214624A068
:100F50000DF0A6FF002060E714220BA913483A30D9
:100F6000FFF76FF9142206A910484E30FFF769F910
:100F700020210E4880F8611080F84D104FF47A70EF
:100F8000B6FBF0F100FB116010B94FF47A7005E088
:100F90004FF47A70B6FBF0F100FB11608246034A11
:100FA000022109F05FFC012037E7000008730020F0
:100FB000D05F00208C73002014600020D8410020F6
:100FC0003230253032642D253032642D25303264A4
:100FD0002D253032642D253032642D2530326400C9
:100FE000736E7072696E7466206572726F722C20F7
:100FF000746865206C656E206973202564000000AC
:1010000010B500200A498880C8800881488178216D
:1010100007480C30FFF72EF9782105488430FFF798
:1010200029F978210248FC30FFF724F9012010BD8E
:101030002C7000202DE9FE4F04460D4602F0B8FF4B
:10104000074600200290019014B1062D00DB17B96D
:101050000020BDE8FE8FA67894F8038060782178A0
:1010600040EA01290B2D4CD90B2243A12046FFF762
:1010700025F9F8B9A5F10B00102805D9112141A0D7
:101080000BF0E2FB0020E4E74348002101604160EF
:101090008160C160A5F10B0204F10B01FFF7D1F8EB
:1010A0002C233D4A002101200FF0E0FC14213BA03D
:1010B0000BF0CAFB0D223FA12046FFF7FFF800BB53
:1010C000A5F10D00102805D913213EA00BF0BCFBA3
:1010D0000020BEE730480021C161016241628162A7
:1010E000A5F10D0204F10D011C30FFF7AAF82C2325
:1010F000294A002101200FF0B9FC162136A00BF07F
:10110000A3FB45F6A520814534D1F01CA84201D0AF
:1011100000209EE7B8F1830F2CD16079217940EA55
:10112000012AA07940064FEA106BE01D0090BAF545
:10113000805F19D1B01C215C701C205C41EA00204A
:101140000190B01C205C00F07F00029039799DF87E
:10115000080061F3DF1000F580500199884208D142
:1011600002A801F0E9FC04E05A465046009901F05B
:10117000EFFC00BF01206CE77365742070696C653B
:1011800049643A007365742070696C65496420662F
:1011900061696C0D0A0000008C7300207365742077
:1011A00070696C65496420737563636573730D0AB8
:1011B00000000000736574205A4670696C654964CC
:1011C0003A000000736574205A4670696C65496482
:1011D000206661696C0D0A00736574205A46706957
:1011E0006C65496420737563636573730D0A000051
:1011F00001480078704700008703002001460A2953
:1012000001DD002070470148405CFBE7615C002085
:1012100010B50CF0D3F810BD004870477974002069
:1012200001480078704700001003002001460A2999
:1012300001DD002070470148405CFBE75F5C002057
:101240000148007870470000C852002001484079EA
:10125000704700005E5C0020014800787047000085
:101260005E5C00200146074890F83800884201DCA7
:101270000020704701EB011000EBC000024A02EBB6
:101280008000F6E7A2020020A853002010B53D48D8
:101290004089401C3B4948814FF6FF700881084651
:1012A0000088888008468088401EC880084680885C
:1012B0004FF47A7190FBF1F201FB120008B9084675
:1012C00007E0304880884FF47A7190FBF1F201FB1F
:1012D000120084B22B4A0C320121204609F0C2FAD6
:1012E000782228490C3101F1F000FEF7AAFF2548C9
:1012F000C088002819DD2348C0884FF47A7190FB1C
:10130000F1F201FB120008B9084607E01D48C08849
:101310004FF47A7190FBF1F201FB120084B2194A8A
:1013200084320121204609F09DFA1648808820B9B0
:101330000021154801F006FF22E0124880880128AC
:101340000FD112490F480C3001F00CFE0D484189B5
:101350004FF4FC5008F000FE00210C4801F0F2FEB2
:101360000EE00B4907480C3001F0FCFD05484189AF
:101370004FF4F85008F0F0FD0021054801F0E2FEBE
:10138000012010BD2C700020CC060020B8060020E3
:10139000A406002070B5044640E038484089401C4F
:1013A000364948810846808808810846C088888078
:1013B0000846C088401EC88078220C3101F1F00038
:1013C000FEF73FFF78222D498431A1F17800FEF726
:1013D00038FF2A48C08800281FDD28484089B0F51A
:1013E0007A7F1ADA2548C0884FF47A7190FBF1F2BF
:1013F00001FB120008B9084607E02048C0884FF4F6
:101400007A7190FBF1F201FB120085B21B4A843223
:101410000121284609F026FA00E004E0201EA4F18C
:101420000101CCB2B9D100BF1448C08820B1134823
:101430004089B0F57A7F0FDB114910480C3001F07C
:1014400091FD0E4841894FF4FC5008F085FD0021C4
:101450000B4801F077FE0EE00A4908480C3001F015
:1014600081FD064841894FF4F85008F075FD0021D0
:10147000044801F067FE012070BD00002C700020C0
:10148000B8060020A406002070B5044654E0464883
:101490004089401E4449488108468088C8800846E3
:1014A0000089888078220C3101F17800FEF7C9FEAE
:1014B00078223D49FC31A1F1F000FEF7C2FE3A4826
:1014C0000089002824DD38480089374909688842A6
:1014D0001ED835480089401C3349088108460089D8
:1014E0004FF47A7190FBF1F201FB120008B9084643
:1014F00007E02D4800894FF47A7190FBF1F201FB6F
:10150000120085B2284AFC320121284609F0AAF9C6
:101510002548008928B12448008923490968884260
:101520000AD922480078401C2049087000201E4932
:1015300008810120488104E0201EA4F10101CCB201
:10154000A5D100BF1948007802280DD1164800899E
:1015500050B90020164988700021164801F0F2FDAC
:101560000020124908701CE00F4880884FF6FF7178
:10157000884207D100200E49887000210D4801F0F3
:10158000E1FD0EE00C4908480C3001F0EBFC064888
:1015900041894FF4F85008F0DFFC0021064801F0C3
:1015A000D1FD012070BD00002C70002040040020FF
:1015B0003C04002088040020A406002001460329E2
:1015C00001DB00207047024801700120FAE70000AB
:1015D0008703002002460A2A01DD002070470248E6
:1015E00081540120FAE70000615C002001460B48AD
:1015F00090F83800884201DC0020704721B90020B3
:10160000074A1070074A107000220548401C4254D7
:10161000801C42540A3042540120EEE7A20200200E
:101620005E5C002010030020024908700021014A7E
:1016300011767047C85200200146024841710120CE
:10164000704700005E5C00200146022901DB00209B
:101650007047024801700120FAE70000A002002054
:1016600010B5134806F01AFE1249086008460068D3
:1016700011490968401A40F6B83188420FD20D4826
:1016800000680D4908600D480078401CC0B20B4945
:10169000087003280ADB00200870012010BD0548EF
:1016A0000068054908600020044908700020F5E73B
:1016B000000000202C04002030040020280400201A
:1016C00070B505460C4616460CB9002070BD0321C6
:1016D000064881776178207841EA00210348016259
:1016E0000021034801F02EFD0120EFE7D841002042
:1016F0007404002038B50446554A082141F2883068
:1017000006F070FD5348007E012800D038BD6A46BF
:1017100051A1544805F0B4FBBDF8000000B1F5E755
:101720004FF48071504802F038FC494A0821642087
:1017300006F058FD4FF400614B4802F02CFC4FF4CA
:101740008051494802F027FC414A0821FA2006F05E
:1017500049FD3F4806F0A2FD44490860084600687C
:101760004349086072E0FFF771FD90BB01F0A4F8F7
:10177000374806F093FD3D4908600020FFF73EFD25
:10178000012827D03B480078042823D03748006838
:101790003749096888420BD33448006834490968DE
:1017A000401A3549884201D301200EE000200CE0A8
:1017B0002F480068C0F1FF302C49096808442E49C1
:1017C000884201D3012000E0002020B30AF044FD4C
:1017D00036E004E0254800682549086030E0002034
:1017E000FFF724FD01282BD1244804F009F898B113
:1017F0000020234908700AF045F8154A08214FF4E3
:101800007A7006F0EFFC124A08214FF4FA6006F0F5
:10181000E9FC03F0F1FC13E019480078401CC0B269
:101820001749087005280BDD002008700AF02AF817
:10183000074A08214FF47A7006F0D4FC0AF00CFD38
:10184000034A08214FF47A7006F0CCFC8BE70000C5
:10185000000000208C73002073656E646D757465E4
:1018600078000000E452002000080140E00200205F
:10187000E4020020D8410020C027090010530020B6
:10188000DF02002030B589B00546182102A8FEF716
:10189000F1FCC14A08214FF4FA6006F0A3FC0AF0FB
:1018A00011FF08AB1422BDA1BF4805F00FFDBDF824
:1018B000200028B1B9A1BDA00DF0F2FA09B030BDE9
:1018C000BF48007E012800D0F8E700240DE0B248B0
:1018D00006F0E4FCBB4941F82400084650F8240017
:1018E000B94941F82400601CC4B2B84890F83800E7
:1018F000A042ECDC4EE100240CE0A74806F0CEFC50
:10190000B04941F82400A44806F0C8FCB04908607A
:10191000601CC4B2AD4890F83800A042EDDC4FF432
:101920007A704FF49673AB4A02A900909E480FF06C
:1019300037FC002825D102980A28FBD1A34890F84B
:101940003800012823D10020FFF770FC012819D1AD
:10195000FFF77CFC012804D19E48069909F064FD3C
:1019600009E0069881B29B480BF0EBFC18B1954852
:101970000068954908604FF496719648FEF77AFC26
:1019800000BF7AE09348069909F04EFD75E0914852
:10199000069909F049FD00246AE004EB041000EB0D
:1019A000C0008D4901EB800090F8620201285DD1F2
:1019B000002004EB041101EBC101874A02EB810115
:1019C00081F86202D4B904EB041202EBC202824B2A
:1019D00003EB8202B2F8601204EB041202EBC202C3
:1019E00003EB820202F108000BF0ABFCD0B37548A8
:1019F00050F82400744941F8240033E004EB04104B
:101A000000EBC000744901EB8000007A682809D11E
:101A100001210846FFF7DEFD6A4850F824006A49B4
:101A200041F8240004EB041000EBC0006A4901EB0C
:101A30008000007A682815D104EB041000EBC00088
:101A400001EB8000407A04280CD104EB041000EB79
:101A5000C00001EB8000807A832803D15C480068D5
:101A60005E49086000205E4941F82400601CC4B251
:101A7000564890F83800A0428FDC55480068574916
:101A8000096888420BD35248006854490968401AD3
:101A90005449884201D301200EE000200CE04F4859
:101AA0000068C0F1FF304A49096808444D4988423E
:101AB00001D3012000E0002030B10020FFF796FDA7
:101AC000434800684549086000245EE02046FFF76F
:101AD000ADFB012851D13D4890F83800012819DDAF
:101AE0003F4850F82400401C3D4941F824000D288F
:101AF00010D3002041F8240034B900231A461946B7
:101B00001E200FF01BFC05E000231A4601211F20B8
:101B10000FF014FC2B4850F824002B4951F82410E6
:101B200088420DD3274850F82400274951F8241043
:101B3000401A2D49884201D3012010E000200EE018
:101B4000204850F82400204951F82410C1F1FF31F9
:101B500008442549884201D3012000E0002090B1CB
:101B6000FFF774FB78B9174850F82400164941F87C
:101B700024002046FFF73AFD05E0124850F8240003
:101B8000114941F82400601CC4B2104890F8380094
:101B9000A0429BDCAFE60000000000203447207329
:101BA000656E64206D710000705800204F535143E2
:101BB0007265617465202573204661696C000000C0
:101BC0008C73002000030020F8020020A2020020F5
:101BD000F0020020A0580020A8530020F4020020AA
:101BE000E802002040771B00905F010070B588B0CC
:101BF0000646182101A8FEF73DFBFFF70DFB054641
:101C00000024904A08214FF4FA6006F0EBFA8E485F
:101C1000007E012801D008B070BD07AB14228BA153
:101C20008D4805F053FBBDF81C0020B187A18BA0A7
:101C30000DF036F9EFE703E14FF47A700A238C4A8E
:101C400001A9009084480FF0ABFA002870D1FFF78B
:101C5000FDFA012800D1F3E0039812284FD00DDCE3
:101C600007284FD005DCC0B1032829D0052876D13C
:101C70004DE0092856D0112871D12DE0172858D0F1
:101C800006DC132848D0142849D0162867D14CE028
:101C90001E2851D01F2862D157E0FFF7DDFA012836
:101CA0000DD10020FFF7C2FA012808D10BF071FB1B
:101CB000704890F83800012801DD0BF01DFB4FE063
:101CC000FFF7CAFA012806D10020FFF7AFFA012872
:101CD00001D10BF063FB43E001200AF0EDFF01208E
:101CE000FFF7A2FC0BF035FB00200BF05CFB61481A
:101CF00090F83800012801DD0AF0F8FF30E00CF020
:101D00009BFB2DE00121284608F0E8FB28E0049920
:101D1000C8B20BF02FFB23E00BF02AFB20E00BF006
:101D20002CFB1DE00BF030FB1AE00BF028FB17E05A
:101D300017E00BF018FB13E04E4890F8380001282C
:101D400002DD002009F0B2FD0AE04A4890F83800B0
:101D5000012802DD012009F0A9FD01E0FFE700BF35
:101D600000BFFFF773FA012800D169E0002410E0FA
:101D7000FFF772FA01280AD12046FFF757FA012827
:101D800005D114B90BF0EAFA01E00BF0D9F9601CA7
:101D9000C4B2384890F83800A042E9DC354890F8E1
:101DA000380001282CDD274806F078FA324908600F
:101DB000084600683149096888420CD32E480068FB
:101DC0002E490968401A42F21071884201D301205D
:101DD0000FE000200DE029480068C0F1FF302649DF
:101DE0000968084442F21071884201D3012000E0E2
:101DF000002028B1204800682049086009F096FDBD
:101E0000FFF71EFA012812D1FFF726FA012816D192
:101E10000020FFF70BFA012811D10020FFF7EEF99F
:101E200001280CD10021284608F058FB07E005489E
:101E300006F034FA1249486008464068886000BFDE
:101E4000FAE60000000000208C7300203447207365
:101E5000656E64206D710000245C00204F53514377
:101E60007265617465202573204661696C0000000D
:101E7000545C0020A2020020080300200C03002074
:101E8000C852002008B50EF005FA6A460821642001
:101E900006F0A8F90EF0E8FA0DF076FA1FE0FFF769
:101EA000D5F9012806D10E4A08214FF47A7006F0C0
:101EB00099F914E00EF08EFF0EF058FA0DF0A2FC26
:101EC00002F0B8F80EF0DCF906480EF0C1F800F0A8
:101ED000BFFC034A0821012006F084F900BFDEE7B9
:101EE00000000020D841002000B58BB00AA80321D3
:101EF00000220592CDE906210890142096210F2298
:101F0000374BCDE90132CDE9031006200023354AD5
:101F100035A10090374805F071FD0AA80321002281
:101F20000592CDE90621089014204FF496711E22E7
:101F3000314BCDE90132CDE90310072000232F4AB0
:101F40002FA10090314805F059FD0AA80321002275
:101F50000592CDE90621089014204FF496711E22B7
:101F60002B4BCDE90132CDE9031008200023294A8B
:101F700029A100902B4805F041FD0AA80321002269
:101F80000592CDE90621089014204FF4AF71232269
:101F9000254BCDE90132CDE9031003200023234A6C
:101FA00023A10090254805F029FD0AA8032100225D
:101FB0000592CDE90621089014204FF4FA713222DF
:101FC0001F4BCDE90132CDE903100A2000231D4A41
:101FD0001DA100901F4805F011FD0BB000BD0000D1
:101FE000E80E0020851E0008417070204368617271
:101FF00067650000300E0020F8110020592000080D
:10200000417070204477696E00000000401100208C
:1020100060170020F51600084170702034474D61AC
:10202000696E0000A8160020C81C00208518000852
:10203000417070203447526563760000101C002008
:10204000F8220020ED1B00084170702034475365D2
:102050006E6400004022002030B589B0054600249F
:10206000182103A8FEF706F9B44A08214FF47A7044
:1020700006F0B8F80AF096FB0021B14801F062F8CA
:102080000EF01CFD08F072FAAE48007E012801D166
:1020900008F06CFA01AB1422ABA1AF4805F016F9B9
:1020A000BDF8040028B1A8A1ACA00CF0F9FE09B05D
:1020B00030BDA24A08214FF47A7006F093F80FF071
:1020C0005FF93AE1FFF7C2F801280AD12146A84892
:1020D00001F038F8994A08214FF47A7006F082F836
:1020E0002BE14FF4FA703223A24A03A900909A48D8
:1020F0000FF056F8002877D10398012842D0042821
:1021000007D0062871D10798C1B29A48FEF792FF0E
:10211000F7E004B9F5E098490698884213D097494A
:10212000069888420FD09649069888420BD0954968
:102130000698884207D094490698884203D093496C
:102140000698884216D18C4884421AD08B48844223
:1021500017D08B48844214D08A48844211D08A48D0
:1021600084420ED002208A4988702146069800F0E9
:10217000E9FF06E00020864988702146069800F0B5
:10218000E1FFBEE0059820B1012823D002287DD1CF
:102190006BE06C48007E01281BD17E48007840B17E
:1021A0007D4805F05DFA0BF0FFFD7B4805F092FAE3
:1021B0000FE040F21113794A002108460EF056FC58
:1021C00001200AF079FD00231A46194618460FF03F
:1021D000B5F893E06F48007840B100206D49087071
:1021E0000120FFF721FA3FE08CE089E06C486D495F
:1021F0000A6802608A888280897981715438D0F8AF
:102200005B10C0F85F100698C1B26548543880F87A
:102210007B124C48007E012812D109F0E9FE624988
:102220000B685F49543991F87B020F220021FEF7B9
:10223000AFFD00231A46194618460FF07FF813E049
:102240005048A04206D002205149887021464C488F
:1022500000F078FF54490B685149543991F87B02DA
:102260000F220121FEF794FD48E04D484D490A68D0
:1022700002608A8882808979817100200EF096F848
:1022800047495439C1F85F00069800E035E0C1B213
:102290004348543880F87B122A48007E012812D126
:1022A00009F0A6FE00231A46194611200FF046F841
:1022B0003D490B683A49543991F87B020F220021BD
:1022C000FEF766FD09E038490B683549543991F845
:1022D0007B020F220121FEF75BFD0FF0DFFA0020E9
:1022E0002C490870C0213148FDF7C4FFC0232F4A94
:1022F000002108200EF0BAFB00E000BF00BF00E0A4
:1023000000BF00BF01F054FE04461CB1E06808B1F4
:10231000E06880471E480088012804D1022002900E
:1023200002A800F009FC1E49543908780FF078F82B
:102330000EF058F90FF046F800BFC3E60000002089
:10234000A00500208C7300206477696E207461738F
:102350006B206D7100000000547600204F535143F4
:102360007265617465202573204661696C00000008
:10237000400600208476002000050020140500207F
:10238000280500203C05002050050020B405002051
:102390003C0400203C00002002000020407500208A
:1023A0002C420020200000202C700020B873002058
:1023B00008B5002590200EF077F800F0C5F99020C0
:1023C0000EF072F84FF4E1300AF082FA00F0EEF904
:1023D00000F0B2F90646AB480068B6FBF0F73846A5
:1023E00005F0A4FF684605F087FA0EF0B1FAA6A042
:1023F0000CF056FD02F066FF09F0B2FD01F002FAA2
:1024000043F63F0144F61F6009F0A0FF8F21092029
:1024100009F0CCFF4FF4FA700EF07EF80120A749C6
:10242000087002F02FFCFFF75FFDA5480068A54982
:10243000086008460068000E096801F47F0140EA60
:102440001120A049098801F47F4140EA01209D49FB
:10245000097840EA01609B4908609948001D0068BE
:102460009949086008460068000E096801F47F0178
:1024700040EA11209449098801F47F4140EA012093
:102480009149097840EA01608F4908608C4808301A
:1024900000688E49086008460068000E096801F46B
:1024A0007F0140EA11208949098801F47F4140EA0F
:1024B00001208649097840EA01608449086008469D
:1024C0000368814802687F48016881A00CF0E8FC3D
:1024D00085487C49096801607B49096841607B49FE
:1024E00009688160814877490968C0F81110764908
:1024F0000968C0F8151075490968C0F8191000BFBF
:1025000008E07A481130405D18B9AA2177481130A7
:1025100041556D1C0C2DF4D340F25371062002F08E
:102520007DFBADE002F09AFB71480068401C7049E9
:1025300008606A460821642005F054FE01F08EF818
:102540006C4880786C4908716A48C078643088713A
:1025500068484078487169480078887067484078D2
:1025600048706648807808706548D0F8A0006449D3
:10257000D1F8A41001446248D0F8A000642250436E
:10258000B0FBF1F45F480068A04201DA5D480460E6
:102590005D48D0F8A0005C49D1F8A41001445A4825
:1025A000D0F8A00064225043B0FBF1F45748006813
:1025B000A04201DA554804605548D0F8A0005449BB
:1025C000D1F8A41001445248D0F8A000642250432E
:1025D000B0FBF1F44F480068A04201DA4D480460B6
:1025E0004D48D0F8A0004C49D1F8A41001444A4805
:1025F000D0F8A00064225043B0FBF1F447480068D3
:10260000A04201DA454804604548D0F8A00044499A
:10261000D1F8A41001444248D0F8A00064225043ED
:10262000B0FBF1F43F480068A04201DA3D48046085
:102630003D48D0F8A0003C49D1F8A41001443A48E4
:10264000D0F8A00064225043B0FBF1F43748006892
:10265000A04201DA354804603548D0F8A00034497A
:10266000D1F8A41001443248D0F8A00064225043AD
:10267000B0FBF1F42F480068A04201DA2D48046055
:1026800050E70000D8380108757361727420496EF4
:1026900069742E2E2E2E2E2E2E2E2E2E2E2E2E2ED9
:1026A0002E2E2E2E2E2E2E2E2E2E2E2E2E2E2E2E4A
:1026B0002E2E2E2E2E2E2E2E0D0A00003C00002037
:1026C000E8F7FF1F30000020340000203800002011
:1026D0004D43552049643A253038782025303878E4
:1026E00020253038780A0000C82A0020D05F00205A
:1026F0003C0700203C02002020000020380200207F
:102700004807002004000020900900200800002055
:10271000300E00200C00002040110020100000208E
:10272000A816002014000020101C00201800002013
:10273000402200201C00002000B585B0684607F04C
:10274000BDFC009805B000BD10B54FF4407004F01A
:1027500037FA10BD2DE9F04105460E4600271DE071
:102760004FF00008002410E055F82410601C55F8C4
:102770002000814208D9621C05EB820105EB840030
:1027800009F0E4FC4FF00108641C701EC01BA0425D
:10279000EADCB8F1000F00D103E07F1C701EB842E4
:1027A000DEDC00BFBDE8F08100BFFEE710B500F041
:1027B0001FF800F019F810BD10B5002400BF00BFCD
:1027C000FDF7F8FC044600BF00BF1021054802F0E9
:1027D0005FFE00BF00BF2046FDF7F0FC00BF00BF5A
:1027E00010BD0000D83E002010B5FFF7E5FF10BD7A
:1027F00010B500200249086000F00AF810BD000082
:10280000700100200149086070470000700100203D
:1028100010B5FFF791FF04460848006840F080704B
:10282000064908600020064948600846006840F0F4
:10283000010008602046FFF7E5FF10BDFCED00E059
:10284000001000E00149486870470000001000E0F7
:1028500010B50E480078012815D10D480DF058F933
:10286000012810D10B4A0821C82005F0BBFC02202A
:10287000064908720020087007488078022802D1B3
:10288000002005498870012010BD00001460002060
:10289000D8410020000000203C04002010B500209A
:1028A0000449086004230A46002105200EF0DEF8E2
:1028B000012010BD2C70002010B50020FEF7B6FCE2
:1028C00001280BD01E480078401CC0B21C4908707B
:1028D000072803DD0020087008F00EFDFEF7BCFCA1
:1028E000012801D003F03CF9FEF7B6FC012801D025
:1028F000002010BD00241CE02046FEF797FC0128B4
:102900000DD034B90F488288811D204602F0F4FDB5
:1029100005E042F248620CA1204602F0EDFD20469F
:10292000FEF784FC012802D0204608F0D9FC601C88
:10293000C4B2044890F83800A042DDDC0120D8E79A
:10294000DE020020A20200203131342E35352E3136
:1029500038362E32303600000146632901DD002072
:1029600070470A2091FBF0F300FB13100A2391FB40
:10297000F3F300EB0310C2B21046F1E721B1026895
:1029800042F00102026004E002684FF6FE731A4052
:10299000026070470021016041608160C160016197
:1029A00041618161C161016241628162704710B51C
:1029B0000022026847F6F0739A430C6A8B6823433F
:1029C0000C6923434C6923438C692343CC6923431B
:1029D0004C6A23438C6A23431A430260CB684360EA
:1029E0000B6883604B68C36010BD000001684FF640
:1029F000FE72114001600021016041608160C16090
:102A00004B49884208D14A490839496841F00F01C9
:102A1000474A083A51608AE045491431884208D152
:102A200043490839496841F0F001414A083A516088
:102A30007DE03F492831884208D13D49083949683D
:102A400041F470613A4A083A516070E038493C31CB
:102A5000884208D136490839496841F47041344AFE
:102A6000083A516063E032495031884208D1304918
:102A70000839496841F470212D4A083A516056E0FE
:102A80002B496431884208D129490839496841F401
:102A90007001274A083A516049E025497831884257
:102AA00008D123490839496841F07061204A083A41
:102AB00051603CE01F49884206D1011F096841F07E
:102AC0000F01021F116032E01A491431884208D107
:102AD0001849091F096841F0F001164A121F1160D8
:102AE00025E014492831884208D11249091F096894
:102AF00041F470610F4A121F116018E00D493C311A
:102B0000884208D10B49091F096841F47041094AFC
:102B1000121F11600BE007495031884207D1054967
:102B2000091F096841F47021024A121F11607047A1
:102B3000080002400804024070B5054601F038FA6A
:102B400004460CB9A06810B12846A168884770BD3A
:102B50002DE9F04105460E4617460DB106B117B9ED
:102B60000020BDE8F081002414E00C4830F8340067
:102B7000A8420DD1094800EBC400406840B10748A5
:102B800000EBC4003A463146436828469847E8E7D8
:102B9000601CC4B20D2CE8D30120E2E7803D01089F
:102BA0007047002107E0002201E0531C9AB26E2A10
:102BB000FBDB4B1C99B28142F5DB704737B5A4B003
:102BC000044601F0F5F9054615B9002027B030BDDF
:102BD000782106A8FDF74EFB9DF894009DF895100E
:102BE0009DF896209DF89830CDE90132CDE903108B
:102BF0009DF8990000909DF89A0000F26C7308A26D
:102C0000782106A80CF05CF9217941F2050242EA2C
:102C1000C1101E2206A907F0C7F90120D6E700005F
:102C2000253034642D2D253032642D2D253032642D
:102C30002D2D253032643A3A253032643A3A253027
:102C4000326400002DE9F04106460D46002401F0F3
:102C5000AFF90746112D00DA17B90020BDE8F08161
:102C6000002417E004EB44000D4911F82000A842AD
:102C70000ED104EB44000B4603EB8000028904EB09
:102C8000440003EB800041683046FDF7DAFA03E0C8
:102C9000601CC4B2112CE5DB00BF0120DEE70000A0
:102CA000B83B01082DE9F04106460D46002401F02D
:102CB0007FF90746112D00DA17B90020BDE8F08131
:102CC000002417E004EB44000D4911F82000A8424D
:102CD0000ED104EB44000B4603EB8000027A04EBB8
:102CE000440003EB80004168304607F05DF903E0E3
:102CF000601CC4B2112CE5DB00BF0120DEE7000040
:102D0000B83B010837B5A4B0044601F051F90546B7
:102D100015B9002027B030BD782106A8FDF7AAFA22
:102D20009DF894009DF895109DF896209DF8983098
:102D3000CDE90132CDE903109DF8990000909DF88E
:102D40009A0000F26C730BA2782106A80CF0B8F878
:102D50001E2206A9204607F027F94FF6C07204EAA2
:102D60000201303188B24FF6FF7109F005F80120F9
:102D7000D0E70000253034642D253032642D253015
:102D8000326420253032643A253032643A253032BC
:102D9000640000002DE9F04106460D46002401F0D4
:102DA00007F90746152D00DA17B90020BDE8F081B4
:102DB000002417E004EB44000D4911F82000A8425C
:102DC0000ED104EB44000B4603EB8000028904EBB8
:102DD000440003EB800041683046FDF732FA03E01F
:102DE000601CC4B2152CE5DB00BF0120DEE700004B
:102DF000843C010810B55748007E012837D10020D7
:102E0000FEF7FCF990B1002053490870084600789D
:102E10005249097888421BD04F4800784F490870C2
:102E2000012142F2600007F083F811E001204A49D5
:102E300008700846007849490978884208D0464811
:102E4000007846490870002142F2600007F070F8EF
:102E5000FEF7E6F960B942480078012808D1002160
:102E600042F2500007F064F800203D4908706FE01E
:102E7000FEF7D6F918B1FEF7D3F9632812D1002076
:102E800035494870084640783449497888425FD0CF
:102E90003148407831494870002142F2500007F033
:102EA00047F855E0FEF7BCF9012811D12A494870CE
:102EB0000846407829494978884249D026484078D0
:102EC00026494870012142F2500007F031F83FE0F6
:102ED000FEF7A6F9142812DA02201F4948700846A6
:102EE00040781E494978884232D01B4840781B49B7
:102EF0004870022142F2500007F01AF828E0FEF76D
:102F00008FF9192812DA03201349487008464078CF
:102F10001249497888421BD00F4840780F494870C1
:102F2000032142F2500007F003F811E004200A499F
:102F300048700846407809494978884208D00648D0
:102F4000407806494870042142F2500006F0F0FF34
:102F5000012010BD8C7300204C0400204E04002082
:102F60005004002070B504460D4678215F48FDF7F7
:102F700081F9207C0006218A01F47F4140EA01208A
:102F8000216901F47F0140EA1120216940EA1160C2
:102F9000564908600A2204F16C015448001DFDF7EF
:102FA00050F9142204F11C0150480E30FDF749F984
:102FB000207D0006A18A01F47F4140EA0120616979
:102FC00001F47F0140EA1120616940EA116047493C
:102FD00048620A2204F1300144482830FDF731F9F3
:102FE0004249206848630846D4F862108163D4F8E7
:102FF0006610C163B4F86A10A0F8401042306168EE
:103000000160A1684160A18901816421A069B0FBD0
:10301000F1F000066422A169B1FBF2F101F47F41F5
:1030200040EA0120A169B1FBF2F101F47F0140EA1D
:103030001120A169B1FBF2F140EA11602B49C8648B
:10304000142204F13A0129485030FDF7FAF814220D
:1030500004F14E0125486430FDF7F3F8297941F277
:10306000010242EAC1102222204906F09DFF29797F
:1030700041F2120242EAC11004221C49243106F036
:1030800093FF297941F2140242EAC1100A2217493A
:10309000283106F089FF297941F2190242EAC1106C
:1030A00004221249343106F07FFF297941F21B02D4
:1030B00042EAC1100A220D49383106F075FF29791C
:1030C0004FF4815242EAC1100E220849423106F003
:1030D0006BFF297941F2500242EAC11028220349CC
:1030E000503106F061FF012070BD0000A07100208A
:1030F0001CB50848016800918188ADF804108079FA
:103100008DF806004FF44050DDE90012FFF7FAFD9C
:1031100000201CBD200000201CB50848016800915B
:103120008188ADF8041080798DF806000448DDE947
:103130000012FFF743FD00201CBD0000200000200E
:103140008C05002070B504460D4604B970BD05B16C
:1031500025600C480460208A0B49088009490968E9
:10316000087906F0DFFE07480068C06840B10548EE
:103170000068C068401C18B102490968C8688047E7
:1031800000BFE3E7340400203C04002010B545F6FE
:10319000A52002F08DF810BD014600BF080900EB24
:1031A0008000420001F00F001044C0B27047014699
:1031B000002204E0501CC2B2A1F10A00C1B20A29E7
:1031C000F8DA100741EA10607047000010B50121DD
:1031D000080706F02FFF012006F046FE012006F04A
:1031E00049FF002006F046FF012007F0E9F800BF84
:1031F000412007F0C7F80028FAD04FF4807006F09D
:1032000055FFFF200D4908607F200D49086001200F
:1032100006F046FF00F054FA094800680949486082
:1032200006480068886000200860084600F0E4F85E
:1032300010B905A00BF034FE10BD00004C020020B8
:1032400048020020944100204552544320507265AA
:103250007363616C657220436F6E66696720666197
:10326000696C656421210D0A0000000008B5002288
:10327000009200200021104A126802F04002CAB9F0
:10328000421E0D4B1A6000BF0B4A126802F040014B
:10329000009A521C0092009AB2F5803F01D000299A
:1032A000F2D0054A126802F040020AB1012002E0A1
:1032B000002000E0012008BD0C2800400348006801
:1032C00020F0800001490860704700000C28004091
:1032D00038B505460C460020009013480068009061
:1032E0001148001F00681149084000900098000C28
:1032F000E0700098C0F304206070009800F03F0078
:10330000A0700098C0F3423020705DB9E078FFF7FC
:1033100043FFE0706078FFF73FFF6070A078FFF731
:103320003BFFA07038BD0000082800403FFFFF00B1
:1033300038B505460C4600200090144800680090FF
:103340001248083800681249084000900098C0F3FD
:10335000054020700098C0F306206070009800F0CF
:103360007F00A070009800F48000000CE0705DB950
:103370002078FFF711FF20706078FFF70DFF607075
:10338000A078FFF709FFA07038BD000008280040B2
:103390007F7F7F00CA22174B1A6053221A6091B1B7
:1033A000144A1C3A126820F004031A43114B1C3BC8
:1033B0001A60104A1C32126800F004031A430D4BC5
:1033C0001C331A6011E00B4A1C3A126820F0040307
:1033D0009A43084B1C3B1A60064A1C32126800F0E4
:1033E00004039A43034B1C331A60FF22014B1A60FB
:1033F000704700002428004030B504460025CA204C
:103400001549086053200860FFF730FF00B91DE040
:1034100011481C38006820F040000F491C39086032
:1034200008460068216808430B491C3908600A49AE
:103430001439A068086008460068A18840EA014085
:10344000054914390860FFF739FF0125FF200249BB
:103450000860284630BD00002428004008B5014619
:103460000020009004480090009800EB810000903C
:103470000098006808BD0000502800402DE9F04188
:1034800005460C46002600274DB9607800F0100074
:10349000102804D1607820F010000A30607005B95F
:1034A00008E06078FFF778FE0646A078FFF774FE24
:1034B000064600BF55B1E0780004617840EA01207B
:1034C000A1780843217840EA413611E0E078FFF71F
:1034D0006EFE4FEA00486078FFF769FE48EA002870
:1034E000A078FFF764FE48EA0008207848EA4036F2
:1034F000CA201249086053200860FFF7B7FE08B9D8
:10350000002714E00E4830400C4920390860FFF7CE
:10351000D5FE0A481C38006800F0200030B900F0E1
:10352000CFF808B9002702E0012700E00127FF20BB
:10353000024908603846BDE8F081000024280040B8
:103540003FFFFF002DE9F04105460C46002600270D
:103550004DB92E48006800F0400000B102E00020A4
:10356000E07000BF0DE02948006800F0400020B185
:103570002078FFF711FE064602E00020E07000BF51
:1035800000BF55B120780004617840EA0120A1789D
:103590000843E17840EA014611E02078FFF707FE92
:1035A0004FEA00486078FFF702FE48EA0028A0785A
:1035B000FFF7FDFD48EA0008E07848EA0046CA2027
:1035C00012491C31086053200860FFF74FFE08B90C
:1035D000002713E00E4830400C4908390860FFF717
:1035E0006DFE0A48006800F0200030B900F068F86D
:1035F00008B9002702E0012700E00127FF20034966
:103600001C3108603846BDE8F08100000828004001
:103610007F7F7F0010B500200E49C8700820087019
:1036200010204870002088700120FFF78BFF0520D4
:103630000949087009208870072048702220C87046
:103640000120FFF71BFF43F2F221002000F068F891
:1036500010BD0000380200203C02002010B50449D3
:103660000020FFF735FE03490020FFF761FE10BD83
:103670003C020020380200200EB502208DF8080020
:1036800001208DF80B008DF8090000208DF80A004C
:1036900002A803F05DFA4FF40010009001208DF8AD
:1036A000060000208DF8040008208DF8050068460B
:1036B00000F044F80121C803FFF76CFE0EBD0000C6
:1036C00008B50022009200200021CA22134B1A6084
:1036D00053221A60114A183A126822F0A0020F4BC6
:1036E000183B1A6000BF0D4A183A126802F0200118
:1036F000009A521C0092009AB2F5003F01D00029B6
:10370000F1D0064A183A126802F020020AB10120EC
:1037100000E00020FF22014B1A6008BD2428004071
:1037200008B500220092044A0092009A02EB80023F
:103730000092009A116008BD5028004000212349E2
:103740008279002A3AD00A46126803689A430B46E7
:103750001A600A1D126803689A430B1D1A600279E9
:1037600011440A6803681A430A60184A083212684A
:1037700003689A43154B08331A601A1D12680368D0
:103780009A43124B0C331A604279102A0ED11A1F39
:10379000126803681A430D4B08331A601A1D126829
:1037A00003681A43094B0C331A600DE0074942794C
:1037B00011440A6803681A430A6005E0027911445B
:1037C0000A6803689A430A607047000000040140D9
:1037D00070B505460C4616460CB9002070BD012197
:1037E000064881776178207841EA00210348016228
:1037F00000210348FFF7A6FC0120EFE7D841002095
:103800007404002008B50020009010214E4800F0FC
:10381000C4FB07F08DFF07F07BFF0020009007F04E
:1038200097FF07F0A1FE012802D107F0EBFE009000
:10383000009820F0FF00454988420DD04449009887
:10384000884209D00520FFF7ACF907F08DFE01286A
:1038500002D107F0D7FE009000203E4908603C49A5
:10386000491E0098884204D14FF47E2039490860EF
:103870005EE039490098884207D14FF4FC20354971
:10388000086001203549087052E03349491C00980E
:10389000884206D0009820F470402D49491E884285
:1038A00007D14FF47E202B49086001202B49087076
:1038B0003EE029494C390098884207D14FF4FF1067
:1038C0002449086001202549087031E02249433924
:1038D0000098884206D122481E49086001201F49ED
:1038E000087025E0009820F0FF001849884205D0B4
:1038F000009820F470401649884204D14FF4FF101C
:103900001449086014E0009820F0FF00154988422F
:1039100006D0009820F470400D49491C884203D11C
:103920000F480C49086003E04FF4FF100949086094
:103930000D490098884202D10948064908600020D4
:1039400007F006FF08BD00000008014000461F0008
:103950001530EF00200400208D25BF002404002036
:1039600000E03F0000471F0017405E002DE9F043D4
:10397000D1B00646884691461F46589C4FF4967132
:1039800006A8FCF777FC142101A8FCF773FC17B11B
:103990000CB1FA2C03DD002051B0BDE8F08306B96C
:1039A000012668208DF8180003208DF819008DF885
:1039B0001A808DF81B90F0B28DF81D00300A8DF83A
:1039C0001C001022214901A8FCF73BFC01A8FCF7D0
:1039D0006EFCC0B28DF81E0001A8FCF768FC85B231
:1039E0002A4601A90DF11F00FCF72BFC05F1080088
:1039F00006AA1454210AE81D1154811C8818224675
:103A00003946FCF71EFC05F10900011906A80DF066
:103A1000D3F905F10901214406AA5054482105F1C2
:103A20000A0020441154701C86B205F10B0020449A
:103A300082B206A9002001F0E9FD054A08214FF4F1
:103A4000FA7004F0CFFB0120A6E700008C73002081
:103A50000000002008B5684600F0A1FA0120ADF88A
:103A6000000000208DF803006946024800F004F8C9
:103A700008BD0000000801402DE9F0410246002584
:103A80000026002000230024002791F803C00CF03A
:103A90000F0591F803C00CF0100CBCF1000F03D01F
:103AA00091F802C04CEA050591F800C0BCF1000F86
:103AB00031D0146800202BE04FF0010C0CFA00F319
:103AC000B1F800C00CEA03069E4220D183004FF0FB
:103AD0000F0C0CFA03F7BC4305FA03FC4CEA040490
:103AE00091F803C0BCF1280F06D14FF0010C0CFA7D
:103AF00000FCC2F814C00AE091F803C0BCF1480F02
:103B000005D14FF0010C0CFA00FCC2F810C0401CAB
:103B10000828D1D31460B1F800C0BCF1FF0F34DD28
:103B2000546800202EE000F1080C4FF0010808FA5C
:103B30000CF3B1F800C00CEA03069E4221D18300C9
:103B40004FF00F0C0CFA03F7BC4305FA03FC4CEAE8
:103B5000040491F803C0BCF1280F05D100F1080C52
:103B600008FA0CF8C2F8148091F803C0BCF1480FB1
:103B700007D100F1080C4FF0010808FA0CF8C2F860
:103B80001080401C0828CED35460BDE8F0810000AE
:103B9000F0B50446B4F1004F72D90023002224F09E
:103BA0000045EB0905F07F052A0905F00F05052BF7
:103BB00003D0970005FA07F603E05708BF0005FA9F
:103BC00007F6062B15D2DFE803F00305080B0E11EC
:103BD000EA480FE0E948001D0CE0E848083009E039
:103BE000E6480C3006E0E548103003E0E3481430C6
:103BF00000E000BF00BF5AB9052B04D1076827F0C9
:103C0000030707604AE0076827F00F07076045E0F1
:103C1000012A0BD1052B04D1076827F00C07076098
:103C20003CE0076827F0F007076037E0022A0BD175
:103C3000052B04D1076827F0300707602EE00768DE
:103C400027F47067076029E0032A0BD1052B04D104
:103C5000076827F0C007076020E0076827F470476F
:103C600007601BE0042A04D1076827F47027076067
:103C700014E0052A05D1076827F4700707600DE0F6
:103C800012E0062A04D1076827F07067076005E094
:103C9000072A03D1076827F070470760012902D17E
:103CA00007683743076067E1B4F5406F77D020DCE1
:103CB000402C75D00CDC042C3FD004DC012C4ED001
:103CC000022C6ED138E0102C59D0202CF9D169E0AB
:103CD000B4F5007F76D005DC802C77D0B4F5807FFA
:103CE000EFD197E0B4F5407F6ED0B4F5006FE8D126
:103CF000C0E0B4F1807F68D011DCB4F5803F1ED005
:103D000006DCB4F5804F71D0B4F5004FD9D115E081
:103D1000B4F5003F14D0B4F5802FD2D111E0B4F146
:103D2000007F74D0B4F1806F72D0B4F1884F70D03E
:103D3000B4F1904FC5D10DE100BF00BF00BF00BF7F
:103D400000BF8E4820384068A0438C4A203A50601B
:103D5000012903D110464068204350600BE1874899
:103D600020384068864A1040844A203A5060012931
:103D700004D11046406840F001005060FBE07F48ED
:103D80002038406820F030007C4A203A50600129F9
:103D900004D11046406840F010005060EBE079E03C
:103DA00025E0E7E075482038406820F03000734A8D
:103DB000203A5060012904D11046406840F02000AC
:103DC0005060D8E036E001E044E083E06B48203802
:103DD000406820F0C000694A203A5060012904D1AF
:103DE0001046406840F080005060C4E062E06348E4
:103DF0002038406820F0C000604A203A5060012915
:103E000004D11046406840F040005060B3E071E0DB
:103E100080E08FE059482038406820F44070574ACD
:103E2000203A5060012904D11046406840F4807067
:103E30005060A0E051482038406820F440704F4A5C
:103E4000203A5060012904D11046406840F40070C7
:103E5000506090E049482038406820F44070474A5C
:103E6000203A5060012904D11046406840F4407067
:103E7000506080E041482038406820F440603F4A6C
:103E8000203A5060012904D11046406840F4006097
:103E9000506070E039482038406820F44060374A6C
:103EA000203A5060012904D11046406840F4406037
:103EB000506060E031482038406820F4C0402F4A0C
:103EC000203A5060012904D11046406840F48040F7
:103ED000506050E029482038406820F0E060274AD0
:103EE000203A5060012904D11046406840F08070AB
:103EF000506040E021482038406820F0E0601F4AD0
:103F0000203A5060012904D11046406840F000700A
:103F1000506030E019482038406820F0E060174ACF
:103F2000203A5060012904D11046406840F080607A
:103F3000506020E011482038C06920F040600F4AEE
:103F4000203AD061012904D11046C06940F0806058
:103F5000D06110E009482038C06920F04060074A6D
:103F6000203AD061012904D11046C06940F00060B8
:103F7000D06100E000BF00BFF0BD000020000140A4
:103F8000FEFFFF7F0246002093680B400BB101202B
:103F900000E00020704741617047016170474FF6B3
:103FA000FF710180022181700421C17070470000FF
:103FB00001480068704700003404002010B515491E
:103FC00015480068FCF711FA0446FCF7A9FB1349F1
:103FD0004861134913480068FCF707FA0446FCF7E8
:103FE0009FFB81B20D48C1810F4910480068FCF762
:103FF000FCF90446FCF794FB81B2084801820549AC
:104000000B480068FCF7F1F90446FCF789FB03490B
:10401000888110BD00007A4408020020D8410020A9
:104020000000C8420002002000002041FC010020E6
:104030001802002070B5264804F030F925490860C0
:1040400025480068FCF799FB04460022234BFCF747
:10405000BFFB38D22248016822480068FCF7D0FB39
:1040600028D11C4800682049096888420CD31948A7
:1040700000681D490968401A4EF66021884201D344
:1040800001200FE000200DE017480068C0F1FF306C
:104090001049096808444EF66021884201D3012086
:1040A00000E0002098B10120104981F8380000F0AC
:1040B000E9FD0CE0074800680B4908600848006803
:1040C0000849086003E0034800680749086070BDBC
:1040D0000000002094020020000200200000F03FB9
:1040E000080200208C02002098020020D841002005
:1040F00010B52248007805281FD2DFE800F0030A37
:1041000011181B000221002006F03EFB1C4908602C
:1041100019E00221012006F037FB1A49086012E07D
:104120000221132006F030FB174908600BE006F06F
:10413000E3FA08E006F04CFB05E006F04DFA00203B
:104140000E49087000BF00BF0C480078401C0B49A6
:1041500008700B48006840F6047188420BD109488A
:10416000006841F28311884205D10748006840F693
:10417000FF71884201D000F085FD10BD30020020A3
:1041800094010020980100209C01002070B50024BB
:10419000002517E06006040E01200C4908600A2083
:1041A0000CF0F4F900200A49C1F8A0010A200CF033
:1041B000EDF9064888380068012801D144F001046F
:1041C000681CC5B2082DE5DB204670BDA0812142E8
:1041D0000080214210B50446204600F001F810BDD1
:1041E00070B505462E4600241AE08020204130405C
:1041F00018B101200C49086002E000200A4908605B
:1042000001200949091D08600A200CF0BFF90020AF
:104210000649C1F8A0010A200CF0B8F9601CC4B22C
:10422000082CE2DB70BD00009C812142008021420D
:1042300070B5044644F080052846FFF7D1FF70BDF5
:1042400010B50020094908600A200CF09FF9EA2007
:10425000FFF7C6FFDC20FFF7C3FF01200449C1F8C8
:10426000A4010A200CF092F910BD0000A4812142A3
:104270000080214210B50020094908600A200CF096
:1042800085F9EA20FFF7ACFFE520FFF7A9FF012041
:104290000449C1F8A4010A200CF078F910BD00000F
:1042A000A4812142008021427047704770477047C7
:1042B0007047704770477047704770477047704746
:1042C0007047704770477047704770477047704736
:1042D0007047704770477047704770477047704726
:1042E00070477047704770477047704770470000CD
:1042F00010B50446207804281AD0052804D00628D2
:104300001DD007282BD122E0FDF7AAF978B10120B2
:104310001449887000211448FEF714FF134A08213D
:10432000322003F05FFF962164200DF0CDFA17E0F4
:1043300001200C498870002001F0F4FF10E00120FA
:1043400008498870FCF75CFEFCF7A0FF08E001203C
:104350000449887006490748FEF7F4FE00E000BFF4
:1043600000BF10BD3C0400206405002000000020B8
:1043700088040020E006002010B5044620780228BA
:1043800008D1002005498870054908680021FEF71A
:10439000D9FE00E000BF00BF10BD00003C040020BB
:1043A0003C05002010B504462078022808D10020E2
:1043B00005498870054908680021FEF7C3FE00E042
:1043C00000BF00BF10BD00003C04002050050020CD
:1043D0000178012905D0032902D0042909D104E07C
:1043E00000BF0021044A917004E00021024A91704C
:1043F00000E000BF00BF70473C04002010B5044639
:10440000207804281ED006DC01280BD002280DD00D
:1044100003282DD111E00F2818D010281CD0112806
:1044200026D11FE000201449887022E0FEF774FEB8
:1044300000211248FEF786FE1BE000211048FEF71F
:1044400081FE16E0002001F06DFF12E001200D4911
:10445000087601F04FFE0CE002200A49087601F0D0
:1044600049FE06E003200749087601F043FE00E01C
:1044700000BF00BF10BD00003C0400208C050020E0
:10448000640500208C73002010B5044620781328A2
:104490004AD2DFE800F0490A0E134949181B2127C8
:1044A0002E353C494949494943000020204988703C
:1044B0003BE000211F48FEF745FE36E000211E4884
:1044C000FEF740FE31E0FEF7E9F92EE001201B493E
:1044D000487601F00FFE28E000201849487601F0E8
:1044E00009FE22E044F230201449488301F002FE24
:1044F0001BE044F231201149488301F0FBFD14E038
:1045000044F230300D49488301F0F4FD0DE044F2EF
:1045100031300A49488301F0EDFD06E00F2141F2F8
:10452000057006F00FF800E000BF00BF10BD0000EE
:104530003C04002078050020A00500208C7300209A
:1045400010B504462078012802D0022809D103E0E2
:1045500000200549887005E000210448FEF7F2FDBF
:1045600000E000BF00BF10BD3C0400208C0500200F
:1045700010B50446207806281AD004DC042807D099
:10458000052839D10CE007281AD00F2834D11FE0B4
:1045900002201B49887000211A48FEF7D3FD2CE049
:1045A00002201749887000211748FEF7CBFD24E050
:1045B00002201349887000211448FEF7C3FD1CE057
:1045C00002200F49887000211148FEF7BBFD14E05E
:1045D000FDF746F878B101200949887000210D489F
:1045E000FEF7B0FD0C4A0821322003F0FBFD9621B6
:1045F00064200DF069F900E000BF00BF10BD0000AD
:104600003C040020C8050020DC050020F005002047
:1046100004060020640500200000002010B50446B8
:1046200020780A281DD006DC022809D008280CD0E2
:10463000092828D10FE00B2819D00E2823D11CE01F
:1046400000211248FEF77EFD1EE0032141F68D0099
:1046500005F082FC18E0062141F68D0005F07CFC97
:1046600012E0092141F68D0005F076FC0CE00C21EA
:1046700041F68D0005F070FC06E0012141F68D0049
:1046800005F060FF00E000BF00BF10BDB4050020D2
:1046900010B5044620780A281DD006DC022809D06F
:1046A00008280CD0092828D10FE00B2819D00E2893
:1046B00023D11CE000211248FEF744FD1EE0052135
:1046C00041F60D1005F048FC18E00A2141F60D10E6
:1046D00005F042FC12E0142141F60D1005F03CFCFF
:1046E0000CE01E2141F60D1005F036FC06E001211C
:1046F00041F60D1005F026FF00E000BF00BF10BD21
:10470000B405002010B5044620780A281DD006DC28
:10471000022809D008280CD0092828D10FE00B283E
:1047200019D00E2823D11CE000211248FEF70AFD03
:104730001EE01E2141F68D1005F00EFC18E03C2114
:1047400041F68D1005F008FC12E05A2141F68D105B
:1047500005F002FC0CE0782141F68D1005F0FCFB21
:1047600006E0012141F68D1005F0ECFE00E000BFEF
:1047700000BF10BDB405002010B504462078052800
:104780000AD1FCF76DFF30B1012005498870002186
:104790000448FEF7D7FC00E000BF00BF10BD0000DA
:1047A0003C0400206405002010B5044620780A2847
:1047B0001DD006DC022809D008280CD0092828D1F1
:1047C0000FE00B2819D00E2823D11CE0002112483D
:1047D000FEF7B8FC1EE0002141F60D2005F0BCFB01
:1047E00018E0082141F60D2005F0B6FB12E00D217E
:1047F00041F60D2005F0B0FB0CE0152141F60D202F
:1048000005F0AAFB06E0012141F60D2005F09AFE15
:1048100000E000BF00BF10BDB405002010B5044685
:104820002078022805D1044908680021FEF78AFC97
:1048300000E000BF00BF10BD8C05002010B504468D
:104840002078022805D1044908680021FEF77AFC87
:1048500000E000BF00BF10BD8C05002010B504466D
:104860002078022805D1044908680021FEF76AFC77
:1048700000E000BF00BF10BD8C05002010B504464D
:104880002078022805D1044908680021FEF75AFC67
:1048900000E000BF00BF10BD8C05002010B504462D
:1048A0002078052813D1FCF7DBFE78B101200949F7
:1048B000887000210848FEF745FC084A082132208C
:1048C00003F090FC962164200CF0FEFF00E000BF96
:1048D00000BF10BD3C040020640500200000002043
:1048E0000178012903D10021024A917000E000BF44
:1048F00000BF70473C04002010B504462078012812
:1049000004D0022806D004280CD107E00020074973
:10491000887008E0012001F005FD04E0022001F0AC
:1049200001FD00E000BF00BF10BD00003C040020FE
:1049300010B504462078012802D0022808D103E0EF
:1049400000200549887004E0012001F0EBFC00E044
:1049500000BF00BF10BD00003C04002010B504469D
:104960002078042809D005280CD101200749887037
:1049700007490848FEF7E6FB05E005490648FEF74B
:10498000E1FB00E000BF00BF10BD00003C040020C0
:10499000B004002064050020D804002010B50446AF
:1049A0002078062818D2DFE800F01703070B0F1352
:1049B00000200B49887010E00120FCF765FD0CE039
:1049C0000120FCF7E7FC08E00A20FCF75DFD04E0AD
:1049D0000A20FCF7DFFC00E000BF00BF10BD0000B4
:1049E0003C04002010B504462078012804D0022899
:1049F00006D003280CD107E000200749887008E0A2
:104A00000120FCF741FD04E00A20FCF73DFD00E039
:104A100000BF00BF10BD00003C0400200178012948
:104A200002D0022908D103E00021054A917004E078
:104A30000021034A917000E000BF00BF70470000F2
:104A40003C0400200178012902D0022908D103E0AA
:104A50000021054A917004E00021034A917000E0B2
:104A600000BF00BF704700003C040020017801290E
:104A700002D0022908D103E00021054A917004E028
:104A80000021034A917000E000BF00BF70470000A2
:104A90003C0400200178012902D0022908D103E05A
:104AA0000021054A917004E00021034A917000E062
:104AB00000BF00BF704700003C04002001780129BE
:104AC00002D0022908D103E00021054A917004E0D8
:104AD0000021034A917000E000BF00BF7047000052
:104AE0003C0400207047000010B5044620780228DE
:104AF00005D1044908680021FEF724FB00E000BF4F
:104B000000BF10BDD804002010B50446207802284C
:104B100005D1044908680021FEF714FB00E000BF3E
:104B200000BF10BDEC04002010B504462078022818
:104B300008D1002005498870054908680021FEF762
:104B400001FB00E000BF00BF10BD00003C040020DE
:104B50000005002010B504462078022808D1002066
:104B600005498870054908680021FEF7EBFA00E066
:104B700000BF00BF10BD00003C0400201405002051
:104B800010B504462078022808D100200549887015
:104B9000054908680021FEF7D5FA00E000BF00BF14
:104BA00010BD00003C040020280500201CB500BFFB
:104BB000EFF30980044600BFEFF30980054626465F
:104BC0002F4670690190786900900423124A0021F1
:104BD00007200BF023FF10480078FF2802D10020A7
:104BE0000D4908700C480078401C0B4908700423DC
:104BF00001AA194607200BF039FF04236A46082151
:104C000007200BF033FF0123034A002107200BF09C
:104C10002DFF00BFFEE70000D42A002070B5054636
:104C20000C4645F2555000F013F8284600F01EF8E7
:104C3000204600F021F800F011F800F001F870BDF6
:104C40004CF6CC400149086070470000003000403D
:104C50000149086070470000003000404AF6AA2071
:104C60000149086070470000003000400149486079
:104C70007047000000300040014988607047000024
:104C80000030004008B564200BF046FC01210820EC
:104C900005F0E0F94FF46070ADF8000002208DF8E7
:104CA000020010208DF8030069466A48FEF7E4FE12
:104CB0004020ADF8000002208DF8020004208DF89D
:104CC000030069466348FEF7D7FE40216148FFF7BD
:104CD00064F90A200BF020FC01205F4908600220E3
:104CE0000BF054FC02200BF051FC00205B49C1F892
:104CF000A00102200BF04AFC002057490839086047
:104D0000FFF7B8FA00205549C1F8A4010A200BF0BA
:104D10003DFCEA20FFF764FA5A20FFF761FA012010
:104D20004D4908600A200BF031FC00204B49C1F8C6
:104D3000A4010A200BF02AFC0020FFF779FA0F20CB
:104D4000FFF74EFA0420FFF74BFA01204349C1F860
:104D5000A4010A200BF01AFC00204049C1F8A4016C
:104D60000A200BF013FC0120FFF762FA1020FFF776
:104D700037FA0320FFF734FA01203849C1F8A401BB
:104D80000A200BF003FC00203449C1F8A4010A20DA
:104D90000BF0FCFB1320FFF74BFA0F20FFF720FA74
:104DA000FF20FFF71DFA01202C49C1F8A4010A20B9
:104DB0000BF0ECFB00202949C1F8A4010A200BF0FC
:104DC000E5FB4020FFF734FA0020FFF709FA002046
:104DD000FFF706FA01202149C1F8A4010A200BF0CF
:104DE000D5FBFFF72DFA0221702005F0CDFC1C4900
:104DF00008600221712005F0C7FC1A4908600221F1
:104E0000722005F0C1FC184908600221732005F0EA
:104E1000BBFC164908600221742005F0B5FC14495A
:104E200008600221752005F0AFFC124908600221DC
:104E3000762005F0A9FC104908600221772005F0D2
:104E4000A3FC0E49086000F07BF806F0ABFF07F00A
:104E500025F808BD000C0140A481214200802142B8
:104E6000AC010020B0010020B4010020B8010020F6
:104E7000BC010020C0010020C4010020C8010020A6
:104E800010B5002453E02C4800EB0410806800B9F2
:104E90004BE02A4803F002FA274901EB04110860AD
:104EA000254800EB04100068234901EB0411496810
:104EB000884212D3204800EB041000681E4901EB21
:104EC00004114968401A1C4901EB041189688842A1
:104ED00001D3012015E0002013E0174800EB041077
:104EE0000068154901EB04114968C1F1FF3108441C
:104EF000114901EB04118968884201D3012000E0C7
:104F0000002088B10C4800EB041000680A4901EB4E
:104F100004114860084800EB0410C06820B106493D
:104F200001EB0411C868804700BF601CC4B2032CA9
:104F3000A9DB012010BD0000880300200000002034
:104F400070B50221702005F01FFC4B49086002215A
:104F5000712005F019FC494908600221722005F012
:104F600013FC474908600221732005F00DFC4549F8
:104F700008600221742005F007FC43490860022103
:104F8000752005F001FC414908600221762005F0FA
:104F9000FBFB3F4908600221772005F0F5FB3D4906
:104FA000086002216F2005F0EFFB3B4908600025F7
:104FB000314800684FF6FF710844304909680844D9
:104FC0002F49096808442F49096808442E4909688F
:104FD00008442E49096808442D49096808442D49A8
:104FE00009680844C543A8B22C4908602CA009F000
:104FF00057FF214801682FA009F052FF1F480168A0
:1050000033A009F04DFF1E48016838A009F048FFA1
:105010001C4801683CA009F043FF1B48016841A0FF
:1050200009F03EFF1948016845A009F039FF18480A
:1050300001684AA009F034FF164801684EA009F043
:105040002FFF1548016853A009F02AFF1348016893
:1050500057A009F025FF114800680F4909688842E8
:1050600004D1012459A009F01BFF03E000245CA037
:1050700009F016FF204670BDAC010020B0010020F1
:10508000B4010020B8010020BC010020C0010020B4
:10509000C4010020C8010020CC010020D001002064
:1050A000D7AABBBBCFB5CAFDBCC4B4E6C6F70D0AD0
:1050B000000000005531365F524D534941435F5265
:1050C000656744617461203D2025780A2000000056
:1050D0005531365F524D534942435F5265674461D3
:1050E0007461203D2025780A200000005531365F8C
:1050F000524D5355435F52656744617461203D20B2
:1051000025780A20000000005531365F506F776522
:10511000725041435F52656744617461203D2025B0
:10512000780A20005531365F506F776572504243E0
:105130005F52656744617461203D2025780A200034
:105140005531365F506F77657253435F52656744E0
:10515000617461203D2025780A2000005531365FBA
:10516000456E6572677941435F526567446174615A
:10517000203D2025780A20005531365F456E657246
:10518000677942435F52656744617461203D202521
:10519000780A20005531365F436865636B53554D7F
:1051A0005F52656744617461203D2025780A2000C4
:1051B0005531365F436865636B53554D5F44617489
:1051C00061203D2025780A2000000000CFB5CAFDEF
:1051D000BCC4B4E6C6F7D0A3D1E96F6B0D0A0000DA
:1051E000CFB5CAFDBCC4B4E6C6F7D0A3D1E96661A9
:1051F000696C0D0A0000000010B5012080F31388CF
:1052000000BF084840680849086008460068074928
:1052100008600449086880F3088800BF03480068F4
:10522000804710BD009001082C00002028000020BD
:105230000020024981F8C80070470000B6760020BF
:10524000094991F8C82091F8C810491C064B83F809
:10525000C8101946885491F8C810C82903D30021F2
:105260001A4682F8C8107047B676002010B504467A
:105270004FF6FF7101EA144000F01AF8A0B200F0F6
:1052800017F810BD10B5084890F8C81007F0DCFA00
:10529000FFF7CEFF054A0821142002F0A3FF0248C1
:1052A00090F8C80010BD0000B67600200000002075
:1052B00010B50446200AFFF7C3FFE0B2FFF7C0FFB6
:1052C00010BD000008B50121084604F0C3FE01210D
:1052D000802004F0BFFE0121042004F0BBFE012168
:1052E000102004F0B7FE0121202004F0B3FE0121BC
:1052F000082004F0AFFE01214806FEF749FC4020DB
:10530000ADF8000002208DF8020010208DF8030097
:1053100069465948FEF7B0FB8020ADF80000022036
:105320008DF8020048208DF8030069465248FEF7C8
:10533000A3FB1020ADF8000002208DF80200102021
:105340008DF8030069464D48FEF796FB10214B4847
:10535000FEF721FE0820ADF8000002208DF80200C3
:1053600010208DF8030069464548FEF785FB0821AB
:105370004348FEF710FE4FF40040ADF80000022055
:105380008DF8020010208DF8030069463D48FEF7B5
:1053900073FB4FF400413B48FEF7FDFD1020ADF8D4
:1053A000000002208DF8020010208DF803006946ED
:1053B0003348FEF761FB4FF40050ADF800000220C7
:1053C0008DF8020010208DF8030069462E48FEF784
:1053D00053FB0220ADF800008DF8020010208DF87C
:1053E000030069462648FEF747FB4FF48050ADF8AE
:1053F000000002208DF8020010208DF8030069469D
:105400002048FEF739FB4FF40060ADF800000220A1
:105410008DF8020010208DF8030069461948FEF748
:105420002BFB4FF400611748FEF7B5FD4FF4807079
:10543000ADF8000002208DF8020010208DF8030066
:1054400069461048FEF718FB4FF480710D48FEF7CF
:10545000A4FD4020ADF8000002208DF802001020CD
:105460008DF8030069460448FEF706FB4FF48051AF
:105470000448FEF790FD08BD001C014000140140E7
:10548000000C0140000801400010014000BFFEE791
:1054900030B505460C4622460021284600F001F8AA
:1054A00030BD2DE9F04105460B4694460027002407
:1054B00002E03F021F43641C042CFAD3604605F04F
:1054C0000306294646B1344603E001F8013B401E7D
:1054D000641C08B1042CF8D30A4601E080C2001F06
:1054E0000428FBD2114602E001F8013B401E0028CF
:1054F000FAD1BDE8F081000070B504460D461646AD
:1055000006F01AFB00202C49087015E02B4A0821F0
:10551000642002F067FE2A48007BC0F3001030B11F
:105520002748007B20F010002549087308E0224836
:105530000078401C204908701F4800781428E5D3E3
:1055400000BF1D480078142804D31EA009F0A8FC51
:10555000002070BD32462946204600F0FFF80020AA
:105560001549087013E0154A0821642002F03AFE3C
:1055700013480D30005D012804D1002110480D3082
:10558000015508E00C480078401C0B4908700A4897
:1055900000783228E7D300BF07480078322804D3C8
:1055A00011A009F07DFC0020D3E701210448401C34
:1055B00001550120CDE7000022030020000000205B
:1055C0005E5C0020726573706F6E6420636D643A78
:1055D0004154434D445F4E45544F50454E207469ED
:1055E0006D656F7574000000726573706F6E642076
:1055F000636D643A4154434D445F4349504F5045B5
:105600004E2074696D656F75740000002DE9F043DC
:1056100091B004460D461646002700BF3C2101A864
:10562000FAF728FE234633A23C2101A8009609F090
:1056300047FC804608F1010038B9414632A009F024
:105640002FFC002011B0BDE8F08310A800231A46FB
:1056500019460090344801F057FC344890F838005F
:10566000012836DD0A2C00DC35B910AA00212E48AD
:1056700001F072FD0020E5E701A8FAF718FE1FFA15
:1056800080F9494601A807F071F810AA08213220D4
:1056900002F0A8FD0EE0264A0821322002F0A2FD09
:1056A0002448005D012803D100212248015503E070
:1056B000781CC7B2642FEED300BF642F09D11EA09F
:1056C00009F0EEFB10AA0021174801F045FD00206B
:1056D000B8E73146284607F049F810AA00211248D9
:1056E00001F03AFD124A08214FF47A7002F07AFD77
:1056F0000120A7E741542B43495053454E443D25D3
:10570000642C25640D0A0000736E7072696E7466F5
:10571000206572726F722C20746865206C656E2033
:105720006973202564000000E4520020A2020020DA
:10573000000000206D5C0020726573706F6E642045
:10574000636D643A4154434D445F53454E44414375
:105750004B2074696D656F75740000002DE9F0438E
:1057600091B005460E4617460EB10A2D03DD002006
:1057700011B0BDE8F0832B4611A23C2102A8CDE96F
:10578000006709F09DFB0446601C28B9214614A05F
:1057900009F086FB0020EBE702A8FAF788FD1FFA64
:1057A00080F8414602A807F06BF8814602A8FAF794
:1057B0007EFD814501D10120DAE70020D8E7000015
:1057C00041542B4349504F50454E3D25642C2254A3
:1057D0004350222C222573222C25640D0A00000040
:1057E000736E7072696E7466206572726F722C20AF
:1057F000746865206C656E20697320256400000064
:105800007CB505460020FBF72DFD044600200190E5
:10581000552000900DB900207CBD287808B90020E3
:10582000FAE7AC4A08214FF4FA6002F0DBFC06F01C
:105830008FF8A84A08214FF4FA6002F0D3FC06F072
:1058400053F9A44A08214FF47A7002F0CBFC06F019
:10585000A3F80020A049086011E09E4A08216420B6
:1058600002F0C0FC9D488079012803D100209B49AB
:10587000887108E098480068401C9749086096487D
:1058800000681428E9D300BF93480068142804D1A5
:1058900093A009F005FB0020BEE7284606F090F82B
:1058A00000208D49086011E08A4A0821322002F068
:1058B00099FC8A48C079012803D100208749C87122
:1058C00008E085480068401C8349086082480068F9
:1058D0002828E9D300BF80480068282804D180A088
:1058E00009F0DEFA002097E795F8640038B305F177
:1058F000640006F0A9F800207749086011E0754AB5
:105900000821322002F06EFC7448007A012803D18D
:1059100000207249087208E06F480068401C6E4918
:1059200008606D4800682828E9D300BF6A4800680D
:10593000282804D16AA009F0B3FA00206CE706F029
:1059400015F800206449086011E0624A08213220FD
:1059500002F048FC6148407A012803D100205F49E9
:10596000487208E05C480068401C5B4908605A487F
:1059700000682828E9D300BF57480068282804D1C8
:105980005FA009F08DFA002046E72068B0F5483F97
:1059900004D963A009F084FA00203DE74D4802F0E5
:1059A0007DFC64490860084600686349086081E03E
:1059B00020680199884201D200202DE720680199D2
:1059C00088420FD1042301AA012109200BF04EF8CF
:1059D00001204249C87201236A46002109200BF0C8
:1059E00045F86CE020680199401ADC2803D9DC20D6
:1059F00006F0CAF804E02168019A881A06F0C4F893
:105A0000344802F04BFC4B4908603448C07A012806
:105A100013D12068019988420ED1042301AA0121E3
:105A200009200BF023F801202C49C87201236A4693
:105A3000002109200BF01AF841E03E4800683E4979
:105A40000968401A3D49884204D93DA009F028FA66
:105A50000020E1E60020204908601DE01D4A0821E1
:105A6000322002F0BFFB1D48807A01280FD10020B0
:105A70001A49887204F1080263680199491D0920D6
:105A80000AF0F4FF606801990844019008E01248A8
:105A90000068401C104908600F4800682828DDD3C2
:105AA00000BF0D480068282804D325A009F0F8F9A4
:105AB0000020B1E60948C07A00283FF479AF00BF62
:105AC00006F012F8034A08214FF47A7002F08AFBBC
:105AD0000120A1E600000020140300205E5C0020ED
